{
  "_format": "hh-sol-artifact-1",
  "contractName": "IDO",
  "sourceName": "contracts/peripherals/Ido.sol",
  "abi": [
    {
      "inputs": [],
      "stateMutability": "nonpayable",
      "type": "constructor"
    },
    {
      "anonymous": false,
      "inputs": [
        {
          "indexed": false,
          "internalType": "uint256",
          "name": "startTime",
          "type": "uint256"
        },
        {
          "indexed": false,
          "internalType": "uint256",
          "name": "endTime",
          "type": "uint256"
        }
      ],
      "name": "IDOStarted",
      "type": "event"
    },
    {
      "anonymous": false,
      "inputs": [
        {
          "indexed": true,
          "internalType": "address",
          "name": "previousOwner",
          "type": "address"
        },
        {
          "indexed": true,
          "internalType": "address",
          "name": "newOwner",
          "type": "address"
        }
      ],
      "name": "OwnershipTransferred",
      "type": "event"
    },
    {
      "anonymous": false,
      "inputs": [
        {
          "indexed": false,
          "internalType": "address",
          "name": "buyer",
          "type": "address"
        },
        {
          "indexed": false,
          "internalType": "uint256",
          "name": "usdcAmount",
          "type": "uint256"
        },
        {
          "indexed": false,
          "internalType": "uint256",
          "name": "unipAmount",
          "type": "uint256"
        }
      ],
      "name": "TokensPurchased",
      "type": "event"
    },
    {
      "inputs": [],
      "name": "USDCtoken",
      "outputs": [
        {
          "internalType": "contract IERC20",
          "name": "",
          "type": "address"
        }
      ],
      "stateMutability": "view",
      "type": "function"
    },
    {
      "inputs": [],
      "name": "blockTimestamp",
      "outputs": [
        {
          "internalType": "uint256",
          "name": "",
          "type": "uint256"
        }
      ],
      "stateMutability": "view",
      "type": "function"
    },
    {
      "inputs": [
        {
          "internalType": "uint256",
          "name": "usdcAmount",
          "type": "uint256"
        }
      ],
      "name": "buyTokens",
      "outputs": [],
      "stateMutability": "nonpayable",
      "type": "function"
    },
    {
      "inputs": [
        {
          "internalType": "uint256",
          "name": "usdcAmount",
          "type": "uint256"
        }
      ],
      "name": "calculateTokenAmount",
      "outputs": [
        {
          "internalType": "uint256",
          "name": "",
          "type": "uint256"
        }
      ],
      "stateMutability": "view",
      "type": "function"
    },
    {
      "inputs": [],
      "name": "checkIdoProgress",
      "outputs": [
        {
          "internalType": "uint256",
          "name": "",
          "type": "uint256"
        }
      ],
      "stateMutability": "view",
      "type": "function"
    },
    {
      "inputs": [],
      "name": "claimInterval",
      "outputs": [
        {
          "internalType": "uint256",
          "name": "",
          "type": "uint256"
        }
      ],
      "stateMutability": "view",
      "type": "function"
    },
    {
      "inputs": [],
      "name": "claimTokens",
      "outputs": [],
      "stateMutability": "nonpayable",
      "type": "function"
    },
    {
      "inputs": [
        {
          "internalType": "address",
          "name": "",
          "type": "address"
        }
      ],
      "name": "claimedAmounts",
      "outputs": [
        {
          "internalType": "uint256",
          "name": "",
          "type": "uint256"
        }
      ],
      "stateMutability": "view",
      "type": "function"
    },
    {
      "inputs": [
        {
          "internalType": "address",
          "name": "",
          "type": "address"
        }
      ],
      "name": "contributions",
      "outputs": [
        {
          "internalType": "uint256",
          "name": "",
          "type": "uint256"
        }
      ],
      "stateMutability": "view",
      "type": "function"
    },
    {
      "inputs": [],
      "name": "endTime",
      "outputs": [
        {
          "internalType": "uint256",
          "name": "",
          "type": "uint256"
        }
      ],
      "stateMutability": "view",
      "type": "function"
    },
    {
      "inputs": [
        {
          "internalType": "address",
          "name": "_unipToken",
          "type": "address"
        },
        {
          "internalType": "address",
          "name": "_usdcToken",
          "type": "address"
        },
        {
          "internalType": "uint256",
          "name": "_startTime",
          "type": "uint256"
        },
        {
          "internalType": "uint256",
          "name": "_endTime",
          "type": "uint256"
        },
        {
          "internalType": "uint256",
          "name": "_minContribution",
          "type": "uint256"
        },
        {
          "internalType": "uint256",
          "name": "_maxContribution",
          "type": "uint256"
        }
      ],
      "name": "initialize",
      "outputs": [],
      "stateMutability": "nonpayable",
      "type": "function"
    },
    {
      "inputs": [],
      "name": "isInitialized",
      "outputs": [
        {
          "internalType": "bool",
          "name": "",
          "type": "bool"
        }
      ],
      "stateMutability": "view",
      "type": "function"
    },
    {
      "inputs": [
        {
          "internalType": "address",
          "name": "",
          "type": "address"
        }
      ],
      "name": "lastClaimedTime",
      "outputs": [
        {
          "internalType": "uint256",
          "name": "",
          "type": "uint256"
        }
      ],
      "stateMutability": "view",
      "type": "function"
    },
    {
      "inputs": [
        {
          "internalType": "address",
          "name": "",
          "type": "address"
        }
      ],
      "name": "lastPurchasedTime",
      "outputs": [
        {
          "internalType": "uint256",
          "name": "",
          "type": "uint256"
        }
      ],
      "stateMutability": "view",
      "type": "function"
    },
    {
      "inputs": [],
      "name": "maxContribution",
      "outputs": [
        {
          "internalType": "uint256",
          "name": "",
          "type": "uint256"
        }
      ],
      "stateMutability": "view",
      "type": "function"
    },
    {
      "inputs": [],
      "name": "minContribution",
      "outputs": [
        {
          "internalType": "uint256",
          "name": "",
          "type": "uint256"
        }
      ],
      "stateMutability": "view",
      "type": "function"
    },
    {
      "inputs": [],
      "name": "owner",
      "outputs": [
        {
          "internalType": "address",
          "name": "",
          "type": "address"
        }
      ],
      "stateMutability": "view",
      "type": "function"
    },
    {
      "inputs": [
        {
          "internalType": "address",
          "name": "",
          "type": "address"
        }
      ],
      "name": "purchasedAmounts",
      "outputs": [
        {
          "internalType": "uint256",
          "name": "",
          "type": "uint256"
        }
      ],
      "stateMutability": "view",
      "type": "function"
    },
    {
      "inputs": [],
      "name": "rate",
      "outputs": [
        {
          "internalType": "uint256",
          "name": "",
          "type": "uint256"
        }
      ],
      "stateMutability": "view",
      "type": "function"
    },
    {
      "inputs": [],
      "name": "remainTokens",
      "outputs": [
        {
          "internalType": "uint256",
          "name": "",
          "type": "uint256"
        }
      ],
      "stateMutability": "view",
      "type": "function"
    },
    {
      "inputs": [],
      "name": "renounceOwnership",
      "outputs": [],
      "stateMutability": "nonpayable",
      "type": "function"
    },
    {
      "inputs": [
        {
          "internalType": "uint256",
          "name": "t",
          "type": "uint256"
        }
      ],
      "name": "setClaimInterval",
      "outputs": [],
      "stateMutability": "nonpayable",
      "type": "function"
    },
    {
      "inputs": [
        {
          "internalType": "uint256",
          "name": "t",
          "type": "uint256"
        }
      ],
      "name": "setEndTime",
      "outputs": [],
      "stateMutability": "nonpayable",
      "type": "function"
    },
    {
      "inputs": [
        {
          "internalType": "uint256",
          "name": "t",
          "type": "uint256"
        }
      ],
      "name": "setMaxContribution",
      "outputs": [],
      "stateMutability": "nonpayable",
      "type": "function"
    },
    {
      "inputs": [
        {
          "internalType": "uint256",
          "name": "t",
          "type": "uint256"
        }
      ],
      "name": "setMinContribution",
      "outputs": [],
      "stateMutability": "nonpayable",
      "type": "function"
    },
    {
      "inputs": [
        {
          "internalType": "uint256",
          "name": "t",
          "type": "uint256"
        }
      ],
      "name": "setRate",
      "outputs": [],
      "stateMutability": "nonpayable",
      "type": "function"
    },
    {
      "inputs": [
        {
          "internalType": "uint256",
          "name": "t",
          "type": "uint256"
        }
      ],
      "name": "setStartTime",
      "outputs": [],
      "stateMutability": "nonpayable",
      "type": "function"
    },
    {
      "inputs": [
        {
          "internalType": "address",
          "name": "_token",
          "type": "address"
        }
      ],
      "name": "setUSDC",
      "outputs": [],
      "stateMutability": "nonpayable",
      "type": "function"
    },
    {
      "inputs": [],
      "name": "startTime",
      "outputs": [
        {
          "internalType": "uint256",
          "name": "",
          "type": "uint256"
        }
      ],
      "stateMutability": "view",
      "type": "function"
    },
    {
      "inputs": [],
      "name": "totalContributed",
      "outputs": [
        {
          "internalType": "uint256",
          "name": "",
          "type": "uint256"
        }
      ],
      "stateMutability": "view",
      "type": "function"
    },
    {
      "inputs": [
        {
          "internalType": "address",
          "name": "newOwner",
          "type": "address"
        }
      ],
      "name": "transferOwnership",
      "outputs": [],
      "stateMutability": "nonpayable",
      "type": "function"
    },
    {
      "inputs": [],
      "name": "unipToken",
      "outputs": [
        {
          "internalType": "contract IERC20",
          "name": "",
          "type": "address"
        }
      ],
      "stateMutability": "view",
      "type": "function"
    },
    {
      "inputs": [],
      "name": "withdrawTokens",
      "outputs": [],
      "stateMutability": "nonpayable",
      "type": "function"
    },
    {
      "inputs": [],
      "name": "withdrawUsdcTokens",
      "outputs": [],
      "stateMutability": "nonpayable",
      "type": "function"
    }
  ],
  "bytecode": "0x60808060405234610059576001600081815581546001600160a01b031916339081179092557f8be0079c531659141344cd1fd0a4f28419497f9722a3daafe3b4186f6b6457e08184a3600a6004556118a1908161005f8239f35b600080fdfe60806040526004361015610013575b600080fd5b60003560e01c8063023f4147146102bb57806303ed9d21146102b25780630b433a12146102a95780632c4e722e146102a05780633197cbb61461029757806334fcf4371461028e5780633610724e14610285578063392e53cd1461027c5780633e0a322d146102735780634185e5071461026a57806342e94c9014610261578063473b0d461461025857806348c54b9d1461024f57806371417b3214610246578063715018a61461023d57806378e979251461023457806386489ba91461022b5780638d3d6576146102225780638d8f2adb146102195780638da5cb5b146102105780639785574c146102075780639808b9e8146101fe578063a24bcf46146101f5578063aaffadf3146101ec578063adb61832146101e3578063b3e089a2146101da578063cc66757c146101d1578063ccb98ffc146101c8578063ce0befcf146101bf578063d431136d146101b6578063f2d57adf146101ad578063f2fde38b146101a4578063f3f91fa01461019b5763fe07d1d51461019357600080fd5b61000e610f1b565b5061000e610ee0565b5061000e610e02565b5061000e610dd3565b5061000e610d98565b5061000e610d7c565b5061000e610d4d565b5061000e610cd0565b5061000e610c81565b5061000e610c65565b5061000e610c46565b5061000e610c1f565b5061000e610bae565b5061000e610b84565b5061000e610b5a565b5061000e610a94565b5061000e610a75565b5061000e610939565b5061000e61091a565b5061000e6108b6565b5061000e61087b565b5061000e61064e565b5061000e61061f565b5061000e6105e4565b5061000e61058e565b5061000e61055f565b5061000e610538565b5061000e6103d8565b5061000e610366565b5061000e610347565b5061000e610328565b5061000e610309565b5061000e6102da565b503461000e57600036600319011261000e576020600a54604051908152f35b503461000e57602036600319011261000e5761030160018060a01b03600154163314610f56565b600435600955005b503461000e57600036600319011261000e576020600554604051908152f35b503461000e57600036600319011261000e576020600454604051908152f35b503461000e57600036600319011261000e576020600754604051908152f35b503461000e57602036600319011261000e5760043561039060018060a01b03600154163314610f56565b6103e881101561039f57600455005b60405162461bcd60e51b8152602060048201526011602482015270072617465206d757374206c74203130303607c1b6044820152606490fd5b503461000e57602036600319011261000e577f8fafebcaf9d154343dad25669bfa277f4fbacd7ac6b0c4fed522580e040a0f3360043561041d60026000541415610fa1565b60026000556006544210158061052d575b61043790610fed565b60085481101580610521575b61044c9061102e565b336000908152600b602052604090206104769061046c9083905b5461109d565b60095410156110b4565b6003546104919082906001600160a01b031630903390611157565b336000908152600b602052604090206104ab82825461109d565b90556104c16104bc82600a5461109d565b600a55565b6104ca816113dc565b336000908152600c602052604090209091906104e783825461109d565b9055336000818152600d6020908152604091829020429055815192835282019290925290810191909152606090a161051f6001600055565b005b50600954811115610443565b50600754421061042e565b503461000e57600036600319011261000e57602060ff60035460a01c166040519015158152f35b503461000e57602036600319011261000e5761058660018060a01b03600154163314610f56565b600435600655005b503461000e57600036600319011261000e576003546040516001600160a01b039091168152602090f35b600435906001600160a01b038216820361000e57565b602435906001600160a01b038216820361000e57565b503461000e57602036600319011261000e576001600160a01b036106066105b8565b16600052600b6020526020604060002054604051908152f35b503461000e57602036600319011261000e5761064660018060a01b03600154163314610f56565b600435600855005b503461000e576000806003193601126108785761066f600282541415610fa1565b6002815561068160075442101561159a565b336000908152600c6020526040902061069c905415156115e6565b336000908152600c602052604090206106c69054336000908152600e602052604090205410611626565b336000908152600e6020526040902054610835575b336000908152600c602052604090206106ff90546106f7611513565b50601e900490565b336000908152600e60205260409020610719908290610466565b336000908152600c602052604090205411806107fb575b6107c9575b336000908152600e602052604090206107ba919061076f90610758908390610466565b336000908152600c602052604090205410156116be565b336000908152600f60209081526040808320429055600e909152902054610797908290611714565b336000908152600e602052604090205560025433906001600160a01b03166117c6565b6107c46001600055565b604051f35b50336000908152600c6020908152604080832054600e909252909120546107ba916107f4919061177b565b9050610735565b50336000908152600e6020526040902061081f905461081983611422565b9061109d565b336000908152600c602052604090205410610730565b336000908152600f6020526040902061084f90544261154c565b600554801561086857610863911015611672565b6106db565b5062093a80610863911015611672565b80fd5b503461000e57602036600319011261000e576001600160a01b0361089d6105b8565b16600052600e6020526020604060002054604051908152f35b503461000e57600080600319360112610878576001546001600160a01b038116906108e2338314610f56565b82604051927f8be0079c531659141344cd1fd0a4f28419497f9722a3daafe3b4186f6b6457e08285a36001600160a01b031916600155f35b503461000e57600036600319011261000e576020600654604051908152f35b503461000e5760c036600319011261000e576109536105b8565b61095b6105ce565b906044356064359160018060a01b0361097981600154163314610f56565b60ff60035460a01c16610a3a576003805460ff60a01b1916600160a01b1790557ff32b942f17dcdc7b72249566bfc2f10364fcd97afab884eaf749198abdf98cfb94610a00926109e290831660018060a01b03166001600160601b0360a01b6002541617600255565b1660018060a01b03166001600160601b0360a01b6003541617600355565b610a0981600655565b610a1282600755565b610a1d608435600855565b610a2860a435600955565b604080519182526020820192909252a1005b60405162461bcd60e51b8152602060048201526013602482015272185b1c9958591e481a5b9a5d1a585b1a5e9959606a1b6044820152606490fd5b503461000e57600036600319011261000e576020600954604051908152f35b503461000e5760008060031936011261087857610ab5600282541415610fa1565b600281556107ba60018060a01b03610ad281600154163314610f56565b610ae0600754421015611815565b6002546040516370a0823160e01b8152306004820152911660208280602481015b0381845afa918215610b4d575b8492610b1d575b5033906117c6565b610b3f91925060203d8111610b46575b610b378183611135565b81019061184f565b9038610b15565b503d610b2d565b610b5561185e565b610b0e565b503461000e57600036600319011261000e576001546040516001600160a01b039091168152602090f35b503461000e57600036600319011261000e576002546040516001600160a01b039091168152602090f35b503461000e5760008060031936011261087857610bcf600282541415610fa1565b600281556107ba60018060a01b03610bec81600154163314610f56565b610bfa600754421015611815565b6003546040516370a0823160e01b815230600482015291166020828060248101610b01565b503461000e57602036600319011261000e576020610c3e6004356113dc565b604051908152f35b503461000e57600036600319011261000e576020600854604051908152f35b503461000e57600036600319011261000e576020604051428152f35b503461000e57602036600319011261000e57610c9b6105b8565b6001546001600160a01b039190610cb59083163314610f56565b166001600160601b0360a01b60035416176003556000604051f35b503461000e57600036600319011261000e576001600654428111600014610d0d575050610d0960015b6040519081529081906020820190565b0390f35b42101580610d42575b15610d265750610d096002610cf9565b600754421015610d3a575b610d0990610cf9565b506003610d31565b506007544210610d16565b503461000e57602036600319011261000e57610d7460018060a01b03600154163314610f56565b600435600755005b503461000e57600036600319011261000e576020610c3e611559565b503461000e57602036600319011261000e576001600160a01b03610dba6105b8565b16600052600d6020526020604060002054604051908152f35b503461000e57602036600319011261000e57610dfa60018060a01b03600154163314610f56565b600435600555005b503461000e57602036600319011261000e57610e1c6105b8565b6001546001600160a01b0390811690610e36338314610f56565b82168015610e8c57600092610e8a91604051937f8be0079c531659141344cd1fd0a4f28419497f9722a3daafe3b4186f6b6457e08686a360018060a01b03166001600160601b0360a01b6001541617600155565bf35b60405162461bcd60e51b815260206004820152602660248201527f4f776e61626c653a206e6577206f776e657220697320746865207a65726f206160448201526564647265737360d01b6064820152608490fd5b503461000e57602036600319011261000e576001600160a01b03610f026105b8565b16600052600f6020526020604060002054604051908152f35b503461000e57602036600319011261000e576001600160a01b03610f3d6105b8565b16600052600c6020526020604060002054604051908152f35b15610f5d57565b606460405162461bcd60e51b815260206004820152602060248201527f4f776e61626c653a2063616c6c6572206973206e6f7420746865206f776e65726044820152fd5b15610fa857565b60405162461bcd60e51b815260206004820152601f60248201527f5265656e7472616e637947756172643a207265656e7472616e742063616c6c006044820152606490fd5b15610ff457565b60405162461bcd60e51b8152602060048201526012602482015271092889e40e8d2daca40dcdee840dac2e8c6d60731b6044820152606490fd5b1561103557565b60405162461bcd60e51b815260206004820152602360248201527f436f6e747269627574696f6e20746f6f20736d616c6c206f7220746f6f206c6160448201526272676560e81b6064820152608490fd5b50634e487b7160e01b600052601160045260246000fd5b919082018092116110aa57565b6110b2611086565b565b156110bb57565b60405162461bcd60e51b815260206004820152601260248201527133ba1036b0bc21b7b73a3934b13aba34b7b760711b6044820152606490fd5b50634e487b7160e01b600052604160045260246000fd5b6040810190811067ffffffffffffffff82111761112857604052565b6111306110f5565b604052565b90601f8019910116810190811067ffffffffffffffff82111761112857604052565b6040516323b872dd60e01b60208201526001600160a01b0392831660248201529290911660448301526064808301939093529181526110b29160a0820182811067ffffffffffffffff8211176111b0575b604052611234565b6111b86110f5565b6111a8565b9081602091031261000e5751801515810361000e5790565b156111dc57565b60405162461bcd60e51b815260206004820152602a60248201527f5361666545524332303a204552433230206f7065726174696f6e20646964206e6044820152691bdd081cdd58d8d9595960b21b6064820152608490fd5b6040516001600160a01b03919091169161124d8261110c565b6020928383527f5361666545524332303a206c6f772d6c6576656c2063616c6c206661696c656484840152803b156112c4576000828192828761129f9796519301915af1611299611309565b906113a0565b805190816112ac57505050565b826110b2936112bf9383010191016111bd565b6111d5565b60405162461bcd60e51b815260048101859052601d60248201527f416464726573733a2063616c6c20746f206e6f6e2d636f6e74726163740000006044820152606490fd5b3d15611352573d9067ffffffffffffffff8211611345575b60405191611339601f8201601f191660200184611135565b82523d6000602084013e565b61134d6110f5565b611321565b606090565b6020808252825181830181905290939260005b82811061138c57505060409293506000838284010152601f8019910116010190565b81810186015184820160400152850161136a565b909190156113ac575090565b8151156113bc5750805190602001fd5b60405162461bcd60e51b81529081906113d89060048301611357565b0390fd5b6113f6620f42406113ff926113ef611513565b50046114b2565b600454906114ea565b90565b811561140c570490565b634e487b7160e01b600052601260045260246000fd5b80156114ac57806000190460021160011661149f575b60026114488260011b9283611402565b036114505790565b60405162461bcd60e51b815260206004820152602160248201527f536166654d6174683a206d756c7469706c69636174696f6e206f766572666c6f6044820152607760f81b6064820152608490fd5b6114a7611086565b611438565b50600090565b80156114ac57670de0b6b3a7640000816000190481116001166114dd575b6114488183029283611402565b6114e5611086565b6114d0565b90811561150c57816000190481116001166114dd576114488183029283611402565b5050600090565b604051906115208261110c565b601a82527f536166654d6174683a206469766973696f6e206279207a65726f0000000000006020830152565b919082039182116110aa57565b6000338152600e6020526040812054600c602052604082205411156113ff5760408082205491600e602052205481039081116115925790565b6113ff611086565b156115a157565b60405162461bcd60e51b815260206004820152601760248201527f49444f2073616c65206e6f742066696e697368207965740000000000000000006044820152606490fd5b156115ed57565b60405162461bcd60e51b81526020600482015260116024820152706e6f20746f6b656e20746f20636c61696d60781b6044820152606490fd5b1561162d57565b60405162461bcd60e51b815260206004820152601960248201527f616c6c20746f6b656e20616c726561647920636c61696d6564000000000000006044820152606490fd5b1561167957565b60405162461bcd60e51b815260206004820152601a60248201527f69742773206e6f74207468652074696d6520746f20636c61696d0000000000006044820152606490fd5b156116c557565b60405162461bcd60e51b815260206004820152602160248201527f707572636861736564416d6f756e7473203c20636c61696d6564416d6f756e746044820152607360f81b6064820152608490fd5b9081019081811161176e575b81106117295790565b60405162461bcd60e51b815260206004820152601b60248201527f536166654d6174683a206164646974696f6e206f766572666c6f7700000000006044820152606490fd5b611776611086565b611720565b906040516117888161110c565b601e81527f536166654d6174683a207375627472616374696f6e206f766572666c6f77000060208201528282116113bc575081039081116115925790565b60405163a9059cbb60e01b60208201526001600160a01b0390921660248301526044808301939093529181526110b2916080820167ffffffffffffffff8111838210176111b057604052611234565b1561181c57565b60405162461bcd60e51b815260206004820152600b60248201526a125113c81b9bdd08195b9960aa1b6044820152606490fd5b9081602091031261000e575190565b506040513d6000823e3d90fdfea2646970667358221220547c112c989b825583175a2f9360b7cbf6a33df199af7c122b50f99304a2b1be64736f6c63430008100033",
  "linkReferences": {},
  "deployedLinkReferences": {}
}