{
  "_format": "hh-sol-artifact-1",
  "contractName": "IDO",
  "sourceName": "contracts/peripherals/Ido.sol",
  "abi": [
    {
      "inputs": [],
      "stateMutability": "nonpayable",
      "type": "constructor"
    },
    {
      "anonymous": false,
      "inputs": [
        {
          "indexed": false,
          "internalType": "uint256",
          "name": "startTime",
          "type": "uint256"
        },
        {
          "indexed": false,
          "internalType": "uint256",
          "name": "endTime",
          "type": "uint256"
        }
      ],
      "name": "IDOStarted",
      "type": "event"
    },
    {
      "anonymous": false,
      "inputs": [
        {
          "indexed": true,
          "internalType": "address",
          "name": "previousOwner",
          "type": "address"
        },
        {
          "indexed": true,
          "internalType": "address",
          "name": "newOwner",
          "type": "address"
        }
      ],
      "name": "OwnershipTransferred",
      "type": "event"
    },
    {
      "anonymous": false,
      "inputs": [
        {
          "indexed": false,
          "internalType": "address",
          "name": "buyer",
          "type": "address"
        },
        {
          "indexed": false,
          "internalType": "uint256",
          "name": "usdcAmount",
          "type": "uint256"
        },
        {
          "indexed": false,
          "internalType": "uint256",
          "name": "unipAmount",
          "type": "uint256"
        }
      ],
      "name": "TokensPurchased",
      "type": "event"
    },
    {
      "inputs": [],
      "name": "USDCtoken",
      "outputs": [
        {
          "internalType": "contract IERC20",
          "name": "",
          "type": "address"
        }
      ],
      "stateMutability": "view",
      "type": "function"
    },
    {
      "inputs": [],
      "name": "blockTimestamp",
      "outputs": [
        {
          "internalType": "uint256",
          "name": "",
          "type": "uint256"
        }
      ],
      "stateMutability": "view",
      "type": "function"
    },
    {
      "inputs": [
        {
          "internalType": "uint256",
          "name": "usdcAmount",
          "type": "uint256"
        }
      ],
      "name": "buyTokens",
      "outputs": [],
      "stateMutability": "nonpayable",
      "type": "function"
    },
    {
      "inputs": [
        {
          "internalType": "uint256",
          "name": "usdcAmount",
          "type": "uint256"
        }
      ],
      "name": "calculateTokenAmount",
      "outputs": [
        {
          "internalType": "uint256",
          "name": "",
          "type": "uint256"
        }
      ],
      "stateMutability": "view",
      "type": "function"
    },
    {
      "inputs": [],
      "name": "checkIdoProgress",
      "outputs": [
        {
          "internalType": "uint256",
          "name": "",
          "type": "uint256"
        }
      ],
      "stateMutability": "view",
      "type": "function"
    },
    {
      "inputs": [],
      "name": "claimInterval",
      "outputs": [
        {
          "internalType": "uint256",
          "name": "",
          "type": "uint256"
        }
      ],
      "stateMutability": "view",
      "type": "function"
    },
    {
      "inputs": [],
      "name": "claimTokens",
      "outputs": [],
      "stateMutability": "nonpayable",
      "type": "function"
    },
    {
      "inputs": [
        {
          "internalType": "address",
          "name": "",
          "type": "address"
        }
      ],
      "name": "claimedAmounts",
      "outputs": [
        {
          "internalType": "uint256",
          "name": "",
          "type": "uint256"
        }
      ],
      "stateMutability": "view",
      "type": "function"
    },
    {
      "inputs": [
        {
          "internalType": "address",
          "name": "",
          "type": "address"
        }
      ],
      "name": "contributions",
      "outputs": [
        {
          "internalType": "uint256",
          "name": "",
          "type": "uint256"
        }
      ],
      "stateMutability": "view",
      "type": "function"
    },
    {
      "inputs": [],
      "name": "endTime",
      "outputs": [
        {
          "internalType": "uint256",
          "name": "",
          "type": "uint256"
        }
      ],
      "stateMutability": "view",
      "type": "function"
    },
    {
      "inputs": [
        {
          "internalType": "address",
          "name": "_unipToken",
          "type": "address"
        },
        {
          "internalType": "address",
          "name": "_usdcToken",
          "type": "address"
        },
        {
          "internalType": "uint256",
          "name": "_startTime",
          "type": "uint256"
        },
        {
          "internalType": "uint256",
          "name": "_endTime",
          "type": "uint256"
        },
        {
          "internalType": "uint256",
          "name": "_minContribution",
          "type": "uint256"
        },
        {
          "internalType": "uint256",
          "name": "_maxContribution",
          "type": "uint256"
        }
      ],
      "name": "initialize",
      "outputs": [],
      "stateMutability": "nonpayable",
      "type": "function"
    },
    {
      "inputs": [],
      "name": "isInitialized",
      "outputs": [
        {
          "internalType": "bool",
          "name": "",
          "type": "bool"
        }
      ],
      "stateMutability": "view",
      "type": "function"
    },
    {
      "inputs": [
        {
          "internalType": "address",
          "name": "",
          "type": "address"
        }
      ],
      "name": "lastClaimTime",
      "outputs": [
        {
          "internalType": "uint256",
          "name": "",
          "type": "uint256"
        }
      ],
      "stateMutability": "view",
      "type": "function"
    },
    {
      "inputs": [],
      "name": "maxContribution",
      "outputs": [
        {
          "internalType": "uint256",
          "name": "",
          "type": "uint256"
        }
      ],
      "stateMutability": "view",
      "type": "function"
    },
    {
      "inputs": [],
      "name": "minContribution",
      "outputs": [
        {
          "internalType": "uint256",
          "name": "",
          "type": "uint256"
        }
      ],
      "stateMutability": "view",
      "type": "function"
    },
    {
      "inputs": [],
      "name": "owner",
      "outputs": [
        {
          "internalType": "address",
          "name": "",
          "type": "address"
        }
      ],
      "stateMutability": "view",
      "type": "function"
    },
    {
      "inputs": [
        {
          "internalType": "address",
          "name": "",
          "type": "address"
        }
      ],
      "name": "purchasedAmounts",
      "outputs": [
        {
          "internalType": "uint256",
          "name": "",
          "type": "uint256"
        }
      ],
      "stateMutability": "view",
      "type": "function"
    },
    {
      "inputs": [],
      "name": "rate",
      "outputs": [
        {
          "internalType": "uint256",
          "name": "",
          "type": "uint256"
        }
      ],
      "stateMutability": "view",
      "type": "function"
    },
    {
      "inputs": [],
      "name": "remainTokens",
      "outputs": [
        {
          "internalType": "uint256",
          "name": "",
          "type": "uint256"
        }
      ],
      "stateMutability": "view",
      "type": "function"
    },
    {
      "inputs": [],
      "name": "renounceOwnership",
      "outputs": [],
      "stateMutability": "nonpayable",
      "type": "function"
    },
    {
      "inputs": [
        {
          "internalType": "uint256",
          "name": "t",
          "type": "uint256"
        }
      ],
      "name": "setClaimInterval",
      "outputs": [],
      "stateMutability": "nonpayable",
      "type": "function"
    },
    {
      "inputs": [
        {
          "internalType": "uint256",
          "name": "t",
          "type": "uint256"
        }
      ],
      "name": "setEndTime",
      "outputs": [],
      "stateMutability": "nonpayable",
      "type": "function"
    },
    {
      "inputs": [
        {
          "internalType": "uint256",
          "name": "t",
          "type": "uint256"
        }
      ],
      "name": "setMaxContribution",
      "outputs": [],
      "stateMutability": "nonpayable",
      "type": "function"
    },
    {
      "inputs": [
        {
          "internalType": "uint256",
          "name": "t",
          "type": "uint256"
        }
      ],
      "name": "setMinContribution",
      "outputs": [],
      "stateMutability": "nonpayable",
      "type": "function"
    },
    {
      "inputs": [
        {
          "internalType": "uint256",
          "name": "t",
          "type": "uint256"
        }
      ],
      "name": "setRate",
      "outputs": [],
      "stateMutability": "nonpayable",
      "type": "function"
    },
    {
      "inputs": [
        {
          "internalType": "uint256",
          "name": "t",
          "type": "uint256"
        }
      ],
      "name": "setStartTime",
      "outputs": [],
      "stateMutability": "nonpayable",
      "type": "function"
    },
    {
      "inputs": [
        {
          "internalType": "address",
          "name": "_token",
          "type": "address"
        }
      ],
      "name": "setUSDC",
      "outputs": [],
      "stateMutability": "nonpayable",
      "type": "function"
    },
    {
      "inputs": [],
      "name": "startTime",
      "outputs": [
        {
          "internalType": "uint256",
          "name": "",
          "type": "uint256"
        }
      ],
      "stateMutability": "view",
      "type": "function"
    },
    {
      "inputs": [],
      "name": "totalContributed",
      "outputs": [
        {
          "internalType": "uint256",
          "name": "",
          "type": "uint256"
        }
      ],
      "stateMutability": "view",
      "type": "function"
    },
    {
      "inputs": [
        {
          "internalType": "address",
          "name": "newOwner",
          "type": "address"
        }
      ],
      "name": "transferOwnership",
      "outputs": [],
      "stateMutability": "nonpayable",
      "type": "function"
    },
    {
      "inputs": [],
      "name": "unipToken",
      "outputs": [
        {
          "internalType": "contract IERC20",
          "name": "",
          "type": "address"
        }
      ],
      "stateMutability": "view",
      "type": "function"
    },
    {
      "inputs": [],
      "name": "withdrawTokens",
      "outputs": [],
      "stateMutability": "nonpayable",
      "type": "function"
    },
    {
      "inputs": [],
      "name": "withdrawUsdcTokens",
      "outputs": [],
      "stateMutability": "nonpayable",
      "type": "function"
    }
  ],
  "bytecode": "0x60808060405234610059576001600081815581546001600160a01b031916339081179092557f8be0079c531659141344cd1fd0a4f28419497f9722a3daafe3b4186f6b6457e08184a3600a6004556116c8908161005f8239f35b600080fdfe60806040526004361015610013575b600080fd5b60003560e01c8063023f4147146102a757806303ed9d211461029e5780630b433a12146102955780632c4e722e1461028c5780633197cbb61461028357806334fcf4371461027a5780633610724e14610271578063392e53cd146102685780633e0a322d1461025f5780634185e5071461025657806342e94c901461024d578063473b0d461461024457806348c54b9d1461023b57806371417b3214610232578063715018a61461022957806378e979251461022057806386489ba9146102175780638d3d65761461020e5780638d8f2adb146102055780638da5cb5b146101fc5780639785574c146101f35780639808b9e8146101ea578063a24bcf46146101e1578063aaffadf3146101d8578063adb61832146101cf578063b3e089a2146101c6578063b77cf9c6146101bd578063cc66757c146101b4578063ccb98ffc146101ab578063ce0befcf146101a2578063f2d57adf14610199578063f2fde38b146101905763fe07d1d51461018857600080fd5b61000e610dea565b5061000e610d0c565b5061000e610cdd565b5061000e610cc1565b5061000e610c92565b5061000e610c15565b5061000e610bda565b5061000e610b8b565b5061000e610b6f565b5061000e610b50565b5061000e610b29565b5061000e610ab8565b5061000e610a8e565b5061000e610a64565b5061000e61099e565b5061000e61097f565b5061000e610843565b5061000e610824565b5061000e6107c0565b5061000e610785565b5061000e61063a565b5061000e61060b565b5061000e6105d0565b5061000e61057a565b5061000e61054b565b5061000e610524565b5061000e6103c4565b5061000e610352565b5061000e610333565b5061000e610314565b5061000e6102f5565b5061000e6102c6565b503461000e57600036600319011261000e576020600a54604051908152f35b503461000e57602036600319011261000e576102ed60018060a01b03600154163314610e25565b600435600955005b503461000e57600036600319011261000e576020600554604051908152f35b503461000e57600036600319011261000e576020600454604051908152f35b503461000e57600036600319011261000e576020600754604051908152f35b503461000e57602036600319011261000e5760043561037c60018060a01b03600154163314610e25565b6103e881101561038b57600455005b60405162461bcd60e51b8152602060048201526011602482015270072617465206d757374206c74203130303607c1b6044820152606490fd5b503461000e57602036600319011261000e577f8fafebcaf9d154343dad25669bfa277f4fbacd7ac6b0c4fed522580e040a0f3360043561040960026000541415610e70565b600260005560065442101580610519575b61042390610ebc565b6008548110158061050d575b61043890610efd565b336000908152600b60205260409020610462906104589083905b54610f58565b6009541015610f6f565b60035461047d9082906001600160a01b031630903390611012565b336000908152600b60205260409020610497828254610f58565b90556104ad6104a882600a54610f58565b600a55565b6104b68161128d565b336000908152600c602052604090209091906104d3838254610f58565b9055336000818152600e6020908152604091829020429055815192835282019290925290810191909152606090a161050b6001600055565b005b5060095481111561042f565b50600754421061041a565b503461000e57600036600319011261000e57602060ff60035460a01c166040519015158152f35b503461000e57602036600319011261000e5761057260018060a01b03600154163314610e25565b600435600655005b503461000e57600036600319011261000e576003546040516001600160a01b039091168152602090f35b600435906001600160a01b038216820361000e57565b602435906001600160a01b038216820361000e57565b503461000e57602036600319011261000e576001600160a01b036105f26105a4565b16600052600b6020526020604060002054604051908152f35b503461000e57602036600319011261000e5761063260018060a01b03600154163314610e25565b600435600855005b503461000e576000806003193601126107825761065b600282541415610e70565b6002815561066d600754421015611418565b336000908152600c6020526040902061068890541515611459565b336000908152600e602052604090206106a29054426113ca565b600554801561076d576106b69110156114e5565b336000908152600c6020526040902061075e906106de90546106d6611391565b50601e900490565b336000908152600d60205260409020610713906106fc908390610452565b336000908152600c60205260409020541015611530565b336000908152600e60209081526040808320429055600d90915290205461073b908290611586565b336000908152600d602052604090205560025433906001600160a01b03166115ed565b6107686001600055565b604051f35b5062093a8061077d91101561149a565b6106b6565b80fd5b503461000e57602036600319011261000e576001600160a01b036107a76105a4565b16600052600d6020526020604060002054604051908152f35b503461000e57600080600319360112610782576001546001600160a01b038116906107ec338314610e25565b82604051927f8be0079c531659141344cd1fd0a4f28419497f9722a3daafe3b4186f6b6457e08285a36001600160a01b031916600155f35b503461000e57600036600319011261000e576020600654604051908152f35b503461000e5760c036600319011261000e5761085d6105a4565b6108656105ba565b906044356064359160018060a01b0361088381600154163314610e25565b60ff60035460a01c16610944576003805460ff60a01b1916600160a01b1790557ff32b942f17dcdc7b72249566bfc2f10364fcd97afab884eaf749198abdf98cfb9461090a926108ec90831660018060a01b03166001600160601b0360a01b6002541617600255565b1660018060a01b03166001600160601b0360a01b6003541617600355565b61091381600655565b61091c82600755565b610927608435600855565b61093260a435600955565b604080519182526020820192909252a1005b60405162461bcd60e51b8152602060048201526013602482015272185b1c9958591e481a5b9a5d1a585b1a5e9959606a1b6044820152606490fd5b503461000e57600036600319011261000e576020600954604051908152f35b503461000e57600080600319360112610782576109bf600282541415610e70565b6002815561075e60018060a01b036109dc81600154163314610e25565b6109ea60075442101561163c565b6002546040516370a0823160e01b8152306004820152911660208280602481015b0381845afa918215610a57575b8492610a27575b5033906115ed565b610a4991925060203d8111610a50575b610a418183610ff0565b810190611676565b9038610a1f565b503d610a37565b610a5f611685565b610a18565b503461000e57600036600319011261000e576001546040516001600160a01b039091168152602090f35b503461000e57600036600319011261000e576002546040516001600160a01b039091168152602090f35b503461000e5760008060031936011261078257610ad9600282541415610e70565b6002815561075e60018060a01b03610af681600154163314610e25565b610b0460075442101561163c565b6003546040516370a0823160e01b815230600482015291166020828060248101610a0b565b503461000e57602036600319011261000e576020610b4860043561128d565b604051908152f35b503461000e57600036600319011261000e576020600854604051908152f35b503461000e57600036600319011261000e576020604051428152f35b503461000e57602036600319011261000e57610ba56105a4565b6001546001600160a01b039190610bbf9083163314610e25565b166001600160601b0360a01b60035416176003556000604051f35b503461000e57602036600319011261000e576001600160a01b03610bfc6105a4565b16600052600e6020526020604060002054604051908152f35b503461000e57600036600319011261000e576001600654428111600014610c52575050610c4e60015b6040519081529081906020820190565b0390f35b42101580610c87575b15610c6b5750610c4e6002610c3e565b600754421015610c7f575b610c4e90610c3e565b506003610c76565b506007544210610c5b565b503461000e57602036600319011261000e57610cb960018060a01b03600154163314610e25565b600435600755005b503461000e57600036600319011261000e576020610b486113d7565b503461000e57602036600319011261000e57610d0460018060a01b03600154163314610e25565b600435600555005b503461000e57602036600319011261000e57610d266105a4565b6001546001600160a01b0390811690610d40338314610e25565b82168015610d9657600092610d9491604051937f8be0079c531659141344cd1fd0a4f28419497f9722a3daafe3b4186f6b6457e08686a360018060a01b03166001600160601b0360a01b6001541617600155565bf35b60405162461bcd60e51b815260206004820152602660248201527f4f776e61626c653a206e6577206f776e657220697320746865207a65726f206160448201526564647265737360d01b6064820152608490fd5b503461000e57602036600319011261000e576001600160a01b03610e0c6105a4565b16600052600c6020526020604060002054604051908152f35b15610e2c57565b606460405162461bcd60e51b815260206004820152602060248201527f4f776e61626c653a2063616c6c6572206973206e6f7420746865206f776e65726044820152fd5b15610e7757565b60405162461bcd60e51b815260206004820152601f60248201527f5265656e7472616e637947756172643a207265656e7472616e742063616c6c006044820152606490fd5b15610ec357565b60405162461bcd60e51b8152602060048201526012602482015271092889e40e8d2daca40dcdee840dac2e8c6d60731b6044820152606490fd5b15610f0457565b60405162461bcd60e51b8152602060048201526015602482015274086dedce8e4d2c4eae8d2dedc40dcdee840daeac6d605b1b6044820152606490fd5b50634e487b7160e01b600052601160045260246000fd5b91908201809211610f6557565b610f6d610f41565b565b15610f7657565b60405162461bcd60e51b815260206004820152601260248201527133ba1036b0bc21b7b73a3934b13aba34b7b760711b6044820152606490fd5b50634e487b7160e01b600052604160045260246000fd5b6040810190811067ffffffffffffffff821117610fe357604052565b610feb610fb0565b604052565b90601f8019910116810190811067ffffffffffffffff821117610fe357604052565b6040516323b872dd60e01b60208201526001600160a01b039283166024820152929091166044830152606480830193909352918152610f6d9160a0820182811067ffffffffffffffff82111761106b575b6040526110ef565b611073610fb0565b611063565b9081602091031261000e5751801515810361000e5790565b1561109757565b60405162461bcd60e51b815260206004820152602a60248201527f5361666545524332303a204552433230206f7065726174696f6e20646964206e6044820152691bdd081cdd58d8d9595960b21b6064820152608490fd5b6040516001600160a01b03919091169161110882610fc7565b6020928383527f5361666545524332303a206c6f772d6c6576656c2063616c6c206661696c656484840152803b1561117f576000828192828761115a9796519301915af16111546111c4565b90611212565b8051908161116757505050565b82610f6d9361117a938301019101611078565b611090565b60405162461bcd60e51b815260048101859052601d60248201527f416464726573733a2063616c6c20746f206e6f6e2d636f6e74726163740000006044820152606490fd5b3d1561120d573d9067ffffffffffffffff8211611200575b604051916111f4601f8201601f191660200184610ff0565b82523d6000602084013e565b611208610fb0565b6111dc565b606090565b9091901561121e575090565b81511561122e5750805190602001fd5b6040519062461bcd60e51b82528160208060048301528251908160248401526000935b828510611274575050604492506000838284010152601f80199101168101030190fd5b8481018201518686016044015293810193859350611251565b6112a7620f42406112b0926112a0611391565b50046112d3565b60045490611368565b90565b81156112bd570490565b634e487b7160e01b600052601260045260246000fd5b801561136257670de0b6b3a764000081600019048111600116611355575b6112fe81830292836112b3565b036113065790565b60405162461bcd60e51b815260206004820152602160248201527f536166654d6174683a206d756c7469706c69636174696f6e206f766572666c6f6044820152607760f81b6064820152608490fd5b61135d610f41565b6112f1565b50600090565b90811561138a5781600019048111600116611355576112fe81830292836112b3565b5050600090565b6040519061139e82610fc7565b601a82527f536166654d6174683a206469766973696f6e206279207a65726f0000000000006020830152565b91908203918211610f6557565b6000338152600d6020526040812054600c602052604082205411156112b05760408082205491600d602052205481039081116114105790565b6112b0610f41565b1561141f57565b60405162461bcd60e51b8152602060048201526012602482015271125113c81cd85b19481b9bdd08195b99195960721b6044820152606490fd5b1561146057565b60405162461bcd60e51b81526020600482015260126024820152716e6f7420746f6b656e20746f20636c61696d60701b6044820152606490fd5b156114a157565b606460405162461bcd60e51b815260206004820152602060248201527f746167322c2069742773206e6f74207468652074696d6520746f20636c61696d6044820152fd5b156114ec57565b606460405162461bcd60e51b815260206004820152602060248201527f746167312c2069742773206e6f74207468652074696d6520746f20636c61696d6044820152fd5b1561153757565b60405162461bcd60e51b815260206004820152602160248201527f707572636861736564416d6f756e7473203c20636c61696d6564416d6f756e746044820152607360f81b6064820152608490fd5b908101908181116115e0575b811061159b5790565b60405162461bcd60e51b815260206004820152601b60248201527f536166654d6174683a206164646974696f6e206f766572666c6f7700000000006044820152606490fd5b6115e8610f41565b611592565b60405163a9059cbb60e01b60208201526001600160a01b039092166024830152604480830193909352918152610f6d916080820167ffffffffffffffff81118382101761106b576040526110ef565b1561164357565b60405162461bcd60e51b815260206004820152600b60248201526a125113c81b9bdd08195b9960aa1b6044820152606490fd5b9081602091031261000e575190565b506040513d6000823e3d90fdfea264697066735822122064b38576d4f009631bbd5ece9619dcefa4f69db32ae3582c91c43e2b3ccf478364736f6c63430008100033",
  "linkReferences": {},
  "deployedLinkReferences": {}
}