{
  "_format": "hh-sol-artifact-1",
  "contractName": "PositionManager",
  "sourceName": "contracts/core/PositionManager.sol",
  "abi": [
    {
      "inputs": [
        {
          "internalType": "address",
          "name": "_vault",
          "type": "address"
        },
        {
          "internalType": "address",
          "name": "_router",
          "type": "address"
        },
        {
          "internalType": "address",
          "name": "_shortsTracker",
          "type": "address"
        },
        {
          "internalType": "address",
          "name": "_weth",
          "type": "address"
        },
        {
          "internalType": "uint256",
          "name": "_depositFee",
          "type": "uint256"
        },
        {
          "internalType": "address",
          "name": "_orderBook",
          "type": "address"
        },
        {
          "internalType": "contract Oracle",
          "name": "_oracle",
          "type": "address"
        }
      ],
      "stateMutability": "nonpayable",
      "type": "constructor"
    },
    {
      "inputs": [],
      "name": "EndOfOracleSimulation",
      "type": "error"
    },
    {
      "inputs": [
        {
          "internalType": "uint256",
          "name": "primaryTokensLength",
          "type": "uint256"
        },
        {
          "internalType": "uint256",
          "name": "primaryPricesLength",
          "type": "uint256"
        }
      ],
      "name": "InvalidPrimaryPricesForSimulation",
      "type": "error"
    },
    {
      "inputs": [
        {
          "internalType": "uint256",
          "name": "secondaryTokensLength",
          "type": "uint256"
        },
        {
          "internalType": "uint256",
          "name": "secondaryPricesLength",
          "type": "uint256"
        }
      ],
      "name": "InvalidSecondaryPricesForSimulation",
      "type": "error"
    },
    {
      "anonymous": false,
      "inputs": [
        {
          "indexed": false,
          "internalType": "address",
          "name": "account",
          "type": "address"
        },
        {
          "indexed": false,
          "internalType": "uint256",
          "name": "sizeDelta",
          "type": "uint256"
        },
        {
          "indexed": false,
          "internalType": "uint256",
          "name": "marginFeeBasisPoints",
          "type": "uint256"
        },
        {
          "indexed": false,
          "internalType": "bytes32",
          "name": "referralCode",
          "type": "bytes32"
        },
        {
          "indexed": false,
          "internalType": "address",
          "name": "referrer",
          "type": "address"
        }
      ],
      "name": "DecreasePositionReferral",
      "type": "event"
    },
    {
      "anonymous": false,
      "inputs": [
        {
          "indexed": false,
          "internalType": "address",
          "name": "account",
          "type": "address"
        },
        {
          "indexed": false,
          "internalType": "uint256",
          "name": "sizeDelta",
          "type": "uint256"
        },
        {
          "indexed": false,
          "internalType": "uint256",
          "name": "marginFeeBasisPoints",
          "type": "uint256"
        },
        {
          "indexed": false,
          "internalType": "bytes32",
          "name": "referralCode",
          "type": "bytes32"
        },
        {
          "indexed": false,
          "internalType": "address",
          "name": "referrer",
          "type": "address"
        }
      ],
      "name": "IncreasePositionReferral",
      "type": "event"
    },
    {
      "anonymous": false,
      "inputs": [
        {
          "indexed": false,
          "internalType": "string",
          "name": "reason",
          "type": "string"
        }
      ],
      "name": "OracleError",
      "type": "event"
    },
    {
      "anonymous": false,
      "inputs": [
        {
          "indexed": false,
          "internalType": "address",
          "name": "admin",
          "type": "address"
        }
      ],
      "name": "SetAdmin",
      "type": "event"
    },
    {
      "anonymous": false,
      "inputs": [
        {
          "indexed": false,
          "internalType": "uint256",
          "name": "depositFee",
          "type": "uint256"
        }
      ],
      "name": "SetDepositFee",
      "type": "event"
    },
    {
      "anonymous": false,
      "inputs": [
        {
          "indexed": false,
          "internalType": "bool",
          "name": "inLegacyMode",
          "type": "bool"
        }
      ],
      "name": "SetInLegacyMode",
      "type": "event"
    },
    {
      "anonymous": false,
      "inputs": [
        {
          "indexed": false,
          "internalType": "uint256",
          "name": "increasePositionBufferBps",
          "type": "uint256"
        }
      ],
      "name": "SetIncreasePositionBufferBps",
      "type": "event"
    },
    {
      "anonymous": false,
      "inputs": [
        {
          "indexed": true,
          "internalType": "address",
          "name": "account",
          "type": "address"
        },
        {
          "indexed": false,
          "internalType": "bool",
          "name": "isActive",
          "type": "bool"
        }
      ],
      "name": "SetLiquidator",
      "type": "event"
    },
    {
      "anonymous": false,
      "inputs": [
        {
          "indexed": false,
          "internalType": "address[]",
          "name": "tokens",
          "type": "address[]"
        },
        {
          "indexed": false,
          "internalType": "uint256[]",
          "name": "longSizes",
          "type": "uint256[]"
        },
        {
          "indexed": false,
          "internalType": "uint256[]",
          "name": "shortSizes",
          "type": "uint256[]"
        }
      ],
      "name": "SetMaxGlobalSizes",
      "type": "event"
    },
    {
      "anonymous": false,
      "inputs": [
        {
          "indexed": true,
          "internalType": "address",
          "name": "account",
          "type": "address"
        },
        {
          "indexed": false,
          "internalType": "bool",
          "name": "isActive",
          "type": "bool"
        }
      ],
      "name": "SetOrderKeeper",
      "type": "event"
    },
    {
      "anonymous": false,
      "inputs": [
        {
          "indexed": false,
          "internalType": "address",
          "name": "account",
          "type": "address"
        },
        {
          "indexed": false,
          "internalType": "bool",
          "name": "isActive",
          "type": "bool"
        }
      ],
      "name": "SetPartner",
      "type": "event"
    },
    {
      "anonymous": false,
      "inputs": [
        {
          "indexed": false,
          "internalType": "address",
          "name": "referralStorage",
          "type": "address"
        }
      ],
      "name": "SetReferralStorage",
      "type": "event"
    },
    {
      "anonymous": false,
      "inputs": [
        {
          "indexed": false,
          "internalType": "bool",
          "name": "shouldValidateIncreaseOrder",
          "type": "bool"
        }
      ],
      "name": "SetShouldValidateIncreaseOrder",
      "type": "event"
    },
    {
      "anonymous": false,
      "inputs": [
        {
          "indexed": false,
          "internalType": "address",
          "name": "token",
          "type": "address"
        },
        {
          "indexed": false,
          "internalType": "address",
          "name": "receiver",
          "type": "address"
        },
        {
          "indexed": false,
          "internalType": "uint256",
          "name": "amount",
          "type": "uint256"
        }
      ],
      "name": "WithdrawFees",
      "type": "event"
    },
    {
      "inputs": [],
      "name": "BASIS_POINTS_DIVISOR",
      "outputs": [
        {
          "internalType": "uint256",
          "name": "",
          "type": "uint256"
        }
      ],
      "stateMutability": "view",
      "type": "function"
    },
    {
      "inputs": [],
      "name": "MAX_USDC_SHARES_SYNTHETIC_ASSET",
      "outputs": [
        {
          "internalType": "uint256",
          "name": "",
          "type": "uint256"
        }
      ],
      "stateMutability": "view",
      "type": "function"
    },
    {
      "inputs": [],
      "name": "admin",
      "outputs": [
        {
          "internalType": "address",
          "name": "",
          "type": "address"
        }
      ],
      "stateMutability": "view",
      "type": "function"
    },
    {
      "inputs": [
        {
          "internalType": "address",
          "name": "_token",
          "type": "address"
        },
        {
          "internalType": "address",
          "name": "_spender",
          "type": "address"
        },
        {
          "internalType": "uint256",
          "name": "_amount",
          "type": "uint256"
        }
      ],
      "name": "approve",
      "outputs": [],
      "stateMutability": "nonpayable",
      "type": "function"
    },
    {
      "inputs": [
        {
          "internalType": "address",
          "name": "_collateralToken",
          "type": "address"
        },
        {
          "internalType": "address",
          "name": "_indexToken",
          "type": "address"
        },
        {
          "internalType": "uint256",
          "name": "_collateralDelta",
          "type": "uint256"
        },
        {
          "internalType": "uint256",
          "name": "_sizeDelta",
          "type": "uint256"
        },
        {
          "internalType": "bool",
          "name": "_isLong",
          "type": "bool"
        },
        {
          "internalType": "address",
          "name": "_receiver",
          "type": "address"
        },
        {
          "internalType": "uint256",
          "name": "_price",
          "type": "uint256"
        }
      ],
      "name": "decreasePosition",
      "outputs": [],
      "stateMutability": "nonpayable",
      "type": "function"
    },
    {
      "inputs": [
        {
          "internalType": "address[]",
          "name": "_path",
          "type": "address[]"
        },
        {
          "internalType": "address",
          "name": "_indexToken",
          "type": "address"
        },
        {
          "internalType": "uint256",
          "name": "_collateralDelta",
          "type": "uint256"
        },
        {
          "internalType": "uint256",
          "name": "_sizeDelta",
          "type": "uint256"
        },
        {
          "internalType": "bool",
          "name": "_isLong",
          "type": "bool"
        },
        {
          "internalType": "address",
          "name": "_receiver",
          "type": "address"
        },
        {
          "internalType": "uint256",
          "name": "_price",
          "type": "uint256"
        },
        {
          "internalType": "uint256",
          "name": "_minOut",
          "type": "uint256"
        }
      ],
      "name": "decreasePositionAndSwap",
      "outputs": [],
      "stateMutability": "nonpayable",
      "type": "function"
    },
    {
      "inputs": [
        {
          "internalType": "address[]",
          "name": "_path",
          "type": "address[]"
        },
        {
          "internalType": "address",
          "name": "_indexToken",
          "type": "address"
        },
        {
          "internalType": "uint256",
          "name": "_collateralDelta",
          "type": "uint256"
        },
        {
          "internalType": "uint256",
          "name": "_sizeDelta",
          "type": "uint256"
        },
        {
          "internalType": "bool",
          "name": "_isLong",
          "type": "bool"
        },
        {
          "internalType": "address payable",
          "name": "_receiver",
          "type": "address"
        },
        {
          "internalType": "uint256",
          "name": "_price",
          "type": "uint256"
        },
        {
          "internalType": "uint256",
          "name": "_minOut",
          "type": "uint256"
        }
      ],
      "name": "decreasePositionAndSwapETH",
      "outputs": [],
      "stateMutability": "nonpayable",
      "type": "function"
    },
    {
      "inputs": [
        {
          "internalType": "address",
          "name": "_collateralToken",
          "type": "address"
        },
        {
          "internalType": "address",
          "name": "_indexToken",
          "type": "address"
        },
        {
          "internalType": "uint256",
          "name": "_collateralDelta",
          "type": "uint256"
        },
        {
          "internalType": "uint256",
          "name": "_sizeDelta",
          "type": "uint256"
        },
        {
          "internalType": "bool",
          "name": "_isLong",
          "type": "bool"
        },
        {
          "internalType": "address payable",
          "name": "_receiver",
          "type": "address"
        },
        {
          "internalType": "uint256",
          "name": "_price",
          "type": "uint256"
        }
      ],
      "name": "decreasePositionETH",
      "outputs": [],
      "stateMutability": "nonpayable",
      "type": "function"
    },
    {
      "inputs": [],
      "name": "depositFee",
      "outputs": [
        {
          "internalType": "uint256",
          "name": "",
          "type": "uint256"
        }
      ],
      "stateMutability": "view",
      "type": "function"
    },
    {
      "inputs": [
        {
          "internalType": "address",
          "name": "_account",
          "type": "address"
        },
        {
          "internalType": "uint256",
          "name": "_orderIndex",
          "type": "uint256"
        },
        {
          "internalType": "address payable",
          "name": "_feeReceiver",
          "type": "address"
        },
        {
          "components": [
            {
              "internalType": "uint256",
              "name": "signerInfo",
              "type": "uint256"
            },
            {
              "internalType": "address[]",
              "name": "tokens",
              "type": "address[]"
            },
            {
              "internalType": "uint256[]",
              "name": "compactedMinOracleBlockNumbers",
              "type": "uint256[]"
            },
            {
              "internalType": "uint256[]",
              "name": "compactedMaxOracleBlockNumbers",
              "type": "uint256[]"
            },
            {
              "internalType": "uint256[]",
              "name": "compactedOracleTimestamps",
              "type": "uint256[]"
            },
            {
              "internalType": "uint256[]",
              "name": "compactedDecimals",
              "type": "uint256[]"
            },
            {
              "internalType": "uint256[]",
              "name": "compactedMinPrices",
              "type": "uint256[]"
            },
            {
              "internalType": "uint256[]",
              "name": "compactedMinPricesIndexes",
              "type": "uint256[]"
            },
            {
              "internalType": "uint256[]",
              "name": "compactedMaxPrices",
              "type": "uint256[]"
            },
            {
              "internalType": "uint256[]",
              "name": "compactedMaxPricesIndexes",
              "type": "uint256[]"
            },
            {
              "internalType": "bytes[]",
              "name": "signatures",
              "type": "bytes[]"
            },
            {
              "internalType": "address[]",
              "name": "priceFeedTokens",
              "type": "address[]"
            }
          ],
          "internalType": "struct OracleUtils.SetPricesParams",
          "name": "oracleParams",
          "type": "tuple"
        }
      ],
      "name": "executeDecreaseOrder",
      "outputs": [],
      "stateMutability": "nonpayable",
      "type": "function"
    },
    {
      "inputs": [
        {
          "internalType": "address",
          "name": "_account",
          "type": "address"
        },
        {
          "internalType": "uint256",
          "name": "_orderIndex",
          "type": "uint256"
        },
        {
          "internalType": "address payable",
          "name": "_feeReceiver",
          "type": "address"
        },
        {
          "components": [
            {
              "internalType": "uint256",
              "name": "signerInfo",
              "type": "uint256"
            },
            {
              "internalType": "address[]",
              "name": "tokens",
              "type": "address[]"
            },
            {
              "internalType": "uint256[]",
              "name": "compactedMinOracleBlockNumbers",
              "type": "uint256[]"
            },
            {
              "internalType": "uint256[]",
              "name": "compactedMaxOracleBlockNumbers",
              "type": "uint256[]"
            },
            {
              "internalType": "uint256[]",
              "name": "compactedOracleTimestamps",
              "type": "uint256[]"
            },
            {
              "internalType": "uint256[]",
              "name": "compactedDecimals",
              "type": "uint256[]"
            },
            {
              "internalType": "uint256[]",
              "name": "compactedMinPrices",
              "type": "uint256[]"
            },
            {
              "internalType": "uint256[]",
              "name": "compactedMinPricesIndexes",
              "type": "uint256[]"
            },
            {
              "internalType": "uint256[]",
              "name": "compactedMaxPrices",
              "type": "uint256[]"
            },
            {
              "internalType": "uint256[]",
              "name": "compactedMaxPricesIndexes",
              "type": "uint256[]"
            },
            {
              "internalType": "bytes[]",
              "name": "signatures",
              "type": "bytes[]"
            },
            {
              "internalType": "address[]",
              "name": "priceFeedTokens",
              "type": "address[]"
            }
          ],
          "internalType": "struct OracleUtils.SetPricesParams",
          "name": "oracleParams",
          "type": "tuple"
        }
      ],
      "name": "executeIncreaseOrder",
      "outputs": [],
      "stateMutability": "nonpayable",
      "type": "function"
    },
    {
      "inputs": [
        {
          "internalType": "address",
          "name": "_account",
          "type": "address"
        },
        {
          "internalType": "uint256",
          "name": "_orderIndex",
          "type": "uint256"
        },
        {
          "internalType": "address payable",
          "name": "_feeReceiver",
          "type": "address"
        },
        {
          "components": [
            {
              "internalType": "uint256",
              "name": "signerInfo",
              "type": "uint256"
            },
            {
              "internalType": "address[]",
              "name": "tokens",
              "type": "address[]"
            },
            {
              "internalType": "uint256[]",
              "name": "compactedMinOracleBlockNumbers",
              "type": "uint256[]"
            },
            {
              "internalType": "uint256[]",
              "name": "compactedMaxOracleBlockNumbers",
              "type": "uint256[]"
            },
            {
              "internalType": "uint256[]",
              "name": "compactedOracleTimestamps",
              "type": "uint256[]"
            },
            {
              "internalType": "uint256[]",
              "name": "compactedDecimals",
              "type": "uint256[]"
            },
            {
              "internalType": "uint256[]",
              "name": "compactedMinPrices",
              "type": "uint256[]"
            },
            {
              "internalType": "uint256[]",
              "name": "compactedMinPricesIndexes",
              "type": "uint256[]"
            },
            {
              "internalType": "uint256[]",
              "name": "compactedMaxPrices",
              "type": "uint256[]"
            },
            {
              "internalType": "uint256[]",
              "name": "compactedMaxPricesIndexes",
              "type": "uint256[]"
            },
            {
              "internalType": "bytes[]",
              "name": "signatures",
              "type": "bytes[]"
            },
            {
              "internalType": "address[]",
              "name": "priceFeedTokens",
              "type": "address[]"
            }
          ],
          "internalType": "struct OracleUtils.SetPricesParams",
          "name": "oracleParams",
          "type": "tuple"
        }
      ],
      "name": "executeSwapOrder",
      "outputs": [],
      "stateMutability": "nonpayable",
      "type": "function"
    },
    {
      "inputs": [
        {
          "internalType": "address",
          "name": "",
          "type": "address"
        }
      ],
      "name": "feeReserves",
      "outputs": [
        {
          "internalType": "uint256",
          "name": "",
          "type": "uint256"
        }
      ],
      "stateMutability": "view",
      "type": "function"
    },
    {
      "inputs": [],
      "name": "getSyntheticTotalGlobalShortSizes",
      "outputs": [
        {
          "internalType": "uint256",
          "name": "",
          "type": "uint256"
        }
      ],
      "stateMutability": "view",
      "type": "function"
    },
    {
      "inputs": [],
      "name": "getSyntheticTotalGuaranteedUsd",
      "outputs": [
        {
          "internalType": "uint256",
          "name": "",
          "type": "uint256"
        }
      ],
      "stateMutability": "view",
      "type": "function"
    },
    {
      "inputs": [],
      "name": "gov",
      "outputs": [
        {
          "internalType": "address",
          "name": "",
          "type": "address"
        }
      ],
      "stateMutability": "view",
      "type": "function"
    },
    {
      "inputs": [],
      "name": "inLegacyMode",
      "outputs": [
        {
          "internalType": "bool",
          "name": "",
          "type": "bool"
        }
      ],
      "stateMutability": "view",
      "type": "function"
    },
    {
      "inputs": [
        {
          "internalType": "address[]",
          "name": "_path",
          "type": "address[]"
        },
        {
          "internalType": "address",
          "name": "_indexToken",
          "type": "address"
        },
        {
          "internalType": "uint256",
          "name": "_amountIn",
          "type": "uint256"
        },
        {
          "internalType": "uint256",
          "name": "_minOut",
          "type": "uint256"
        },
        {
          "internalType": "uint256",
          "name": "_sizeDelta",
          "type": "uint256"
        },
        {
          "internalType": "bool",
          "name": "_isLong",
          "type": "bool"
        },
        {
          "internalType": "uint256",
          "name": "_price",
          "type": "uint256"
        }
      ],
      "name": "increasePosition",
      "outputs": [],
      "stateMutability": "nonpayable",
      "type": "function"
    },
    {
      "inputs": [],
      "name": "increasePositionBufferBps",
      "outputs": [
        {
          "internalType": "uint256",
          "name": "",
          "type": "uint256"
        }
      ],
      "stateMutability": "view",
      "type": "function"
    },
    {
      "inputs": [
        {
          "internalType": "address[]",
          "name": "_path",
          "type": "address[]"
        },
        {
          "internalType": "address",
          "name": "_indexToken",
          "type": "address"
        },
        {
          "internalType": "uint256",
          "name": "_minOut",
          "type": "uint256"
        },
        {
          "internalType": "uint256",
          "name": "_sizeDelta",
          "type": "uint256"
        },
        {
          "internalType": "bool",
          "name": "_isLong",
          "type": "bool"
        },
        {
          "internalType": "uint256",
          "name": "_price",
          "type": "uint256"
        }
      ],
      "name": "increasePositionETH",
      "outputs": [],
      "stateMutability": "payable",
      "type": "function"
    },
    {
      "inputs": [
        {
          "internalType": "address",
          "name": "",
          "type": "address"
        }
      ],
      "name": "isLiquidator",
      "outputs": [
        {
          "internalType": "bool",
          "name": "",
          "type": "bool"
        }
      ],
      "stateMutability": "view",
      "type": "function"
    },
    {
      "inputs": [
        {
          "internalType": "address",
          "name": "",
          "type": "address"
        }
      ],
      "name": "isOrderKeeper",
      "outputs": [
        {
          "internalType": "bool",
          "name": "",
          "type": "bool"
        }
      ],
      "stateMutability": "view",
      "type": "function"
    },
    {
      "inputs": [
        {
          "internalType": "address",
          "name": "",
          "type": "address"
        }
      ],
      "name": "isPartner",
      "outputs": [
        {
          "internalType": "bool",
          "name": "",
          "type": "bool"
        }
      ],
      "stateMutability": "view",
      "type": "function"
    },
    {
      "inputs": [
        {
          "internalType": "address",
          "name": "_account",
          "type": "address"
        },
        {
          "internalType": "address",
          "name": "_collateralToken",
          "type": "address"
        },
        {
          "internalType": "address",
          "name": "_indexToken",
          "type": "address"
        },
        {
          "internalType": "bool",
          "name": "_isLong",
          "type": "bool"
        },
        {
          "internalType": "address",
          "name": "_feeReceiver",
          "type": "address"
        }
      ],
      "name": "liquidatePosition",
      "outputs": [],
      "stateMutability": "nonpayable",
      "type": "function"
    },
    {
      "inputs": [
        {
          "internalType": "address",
          "name": "",
          "type": "address"
        }
      ],
      "name": "maxGlobalLongSizes",
      "outputs": [
        {
          "internalType": "uint256",
          "name": "",
          "type": "uint256"
        }
      ],
      "stateMutability": "view",
      "type": "function"
    },
    {
      "inputs": [
        {
          "internalType": "address",
          "name": "",
          "type": "address"
        }
      ],
      "name": "maxGlobalShortSizes",
      "outputs": [
        {
          "internalType": "uint256",
          "name": "",
          "type": "uint256"
        }
      ],
      "stateMutability": "view",
      "type": "function"
    },
    {
      "inputs": [],
      "name": "oracle",
      "outputs": [
        {
          "internalType": "contract Oracle",
          "name": "",
          "type": "address"
        }
      ],
      "stateMutability": "view",
      "type": "function"
    },
    {
      "inputs": [],
      "name": "orderBook",
      "outputs": [
        {
          "internalType": "address",
          "name": "",
          "type": "address"
        }
      ],
      "stateMutability": "view",
      "type": "function"
    },
    {
      "inputs": [],
      "name": "referralStorage",
      "outputs": [
        {
          "internalType": "address",
          "name": "",
          "type": "address"
        }
      ],
      "stateMutability": "view",
      "type": "function"
    },
    {
      "inputs": [],
      "name": "router",
      "outputs": [
        {
          "internalType": "address",
          "name": "",
          "type": "address"
        }
      ],
      "stateMutability": "view",
      "type": "function"
    },
    {
      "inputs": [
        {
          "internalType": "address payable",
          "name": "_receiver",
          "type": "address"
        },
        {
          "internalType": "uint256",
          "name": "_amount",
          "type": "uint256"
        }
      ],
      "name": "sendValue",
      "outputs": [],
      "stateMutability": "nonpayable",
      "type": "function"
    },
    {
      "inputs": [
        {
          "internalType": "address",
          "name": "_admin",
          "type": "address"
        }
      ],
      "name": "setAdmin",
      "outputs": [],
      "stateMutability": "nonpayable",
      "type": "function"
    },
    {
      "inputs": [
        {
          "internalType": "uint256",
          "name": "_depositFee",
          "type": "uint256"
        }
      ],
      "name": "setDepositFee",
      "outputs": [],
      "stateMutability": "nonpayable",
      "type": "function"
    },
    {
      "inputs": [
        {
          "internalType": "address",
          "name": "_gov",
          "type": "address"
        }
      ],
      "name": "setGov",
      "outputs": [],
      "stateMutability": "nonpayable",
      "type": "function"
    },
    {
      "inputs": [
        {
          "internalType": "bool",
          "name": "_inLegacyMode",
          "type": "bool"
        }
      ],
      "name": "setInLegacyMode",
      "outputs": [],
      "stateMutability": "nonpayable",
      "type": "function"
    },
    {
      "inputs": [
        {
          "internalType": "uint256",
          "name": "_increasePositionBufferBps",
          "type": "uint256"
        }
      ],
      "name": "setIncreasePositionBufferBps",
      "outputs": [],
      "stateMutability": "nonpayable",
      "type": "function"
    },
    {
      "inputs": [
        {
          "internalType": "address",
          "name": "_account",
          "type": "address"
        },
        {
          "internalType": "bool",
          "name": "_isActive",
          "type": "bool"
        }
      ],
      "name": "setLiquidator",
      "outputs": [],
      "stateMutability": "nonpayable",
      "type": "function"
    },
    {
      "inputs": [
        {
          "internalType": "address[]",
          "name": "_tokens",
          "type": "address[]"
        },
        {
          "internalType": "uint256[]",
          "name": "_longSizes",
          "type": "uint256[]"
        },
        {
          "internalType": "uint256[]",
          "name": "_shortSizes",
          "type": "uint256[]"
        }
      ],
      "name": "setMaxGlobalSizes",
      "outputs": [],
      "stateMutability": "nonpayable",
      "type": "function"
    },
    {
      "inputs": [
        {
          "internalType": "contract Oracle",
          "name": "_oracle",
          "type": "address"
        }
      ],
      "name": "setOracle",
      "outputs": [],
      "stateMutability": "nonpayable",
      "type": "function"
    },
    {
      "inputs": [
        {
          "internalType": "address",
          "name": "_account",
          "type": "address"
        },
        {
          "internalType": "bool",
          "name": "_isActive",
          "type": "bool"
        }
      ],
      "name": "setOrderKeeper",
      "outputs": [],
      "stateMutability": "nonpayable",
      "type": "function"
    },
    {
      "inputs": [
        {
          "internalType": "address",
          "name": "_account",
          "type": "address"
        },
        {
          "internalType": "bool",
          "name": "_isActive",
          "type": "bool"
        }
      ],
      "name": "setPartner",
      "outputs": [],
      "stateMutability": "nonpayable",
      "type": "function"
    },
    {
      "inputs": [
        {
          "internalType": "address",
          "name": "_referralStorage",
          "type": "address"
        }
      ],
      "name": "setReferralStorage",
      "outputs": [],
      "stateMutability": "nonpayable",
      "type": "function"
    },
    {
      "inputs": [
        {
          "internalType": "bool",
          "name": "_shouldValidateIncreaseOrder",
          "type": "bool"
        }
      ],
      "name": "setShouldValidateIncreaseOrder",
      "outputs": [],
      "stateMutability": "nonpayable",
      "type": "function"
    },
    {
      "inputs": [],
      "name": "shortsTracker",
      "outputs": [
        {
          "internalType": "address",
          "name": "",
          "type": "address"
        }
      ],
      "stateMutability": "view",
      "type": "function"
    },
    {
      "inputs": [],
      "name": "shouldValidateIncreaseOrder",
      "outputs": [
        {
          "internalType": "bool",
          "name": "",
          "type": "bool"
        }
      ],
      "stateMutability": "view",
      "type": "function"
    },
    {
      "inputs": [],
      "name": "vault",
      "outputs": [
        {
          "internalType": "address",
          "name": "",
          "type": "address"
        }
      ],
      "stateMutability": "view",
      "type": "function"
    },
    {
      "inputs": [],
      "name": "weth",
      "outputs": [
        {
          "internalType": "address",
          "name": "",
          "type": "address"
        }
      ],
      "stateMutability": "view",
      "type": "function"
    },
    {
      "inputs": [
        {
          "internalType": "address",
          "name": "_token",
          "type": "address"
        },
        {
          "internalType": "address",
          "name": "_receiver",
          "type": "address"
        }
      ],
      "name": "withdrawFees",
      "outputs": [],
      "stateMutability": "nonpayable",
      "type": "function"
    },
    {
      "stateMutability": "payable",
      "type": "receive"
    }
  ],
  "bytecode": "0x6080346200013657601f620059fc38819003918201601f19168301916001600160401b038311848410176200013b5780849260e09460405283398101031262000136576200004d8162000151565b6200005b6020830162000151565b916200006a6040820162000151565b92620000796060830162000151565b60808301519460c06200008f60a0860162000151565b9401516001600160a01b0380821697909490918890036200013657849384809260016000558160018060a01b03199a338c60015416176001556064600855168a600354161760035516886005541617600555168660065416176006556007551683600454161760045533836002541617600255600d5490600160a81b921690600161ff0160a01b0319161717600d5560115416176011556040516158959081620001678239f35b600080fd5b634e487b7160e01b600052604160045260246000fd5b51906001600160a01b0382168203620001365756fe60806040526004361015610023575b361561001957600080fd5b610021612186565b005b60003560e01c80626cc35e146103d95780631045c74e146103d0578063126082cf1461037f57806312d43a51146103c75780631b904359146103be5780631ce9cb8f146103b55780631e261538146103ac57806321acf659146103a3578063233bfe3b1461039a578063236f5ff41461039157806324a084df146103885780632725f9081461037f5780633039e37f146103765780633833f5f51461036d5780633fc8cef314610364578063430ed37c1461035b5780634453a374146103525780634584bd4b14610349578063490ae21014610340578063529a356f146103375780635fc8500e1461032e578063657bc5d01461032557806367a527931461031c5780636a9234da14610313578063704b6c021461030a578063776af5ba146103015780637adbf973146102f85780637dc0d1d0146102ef5780638c0f9aac146102e657806390205d8c146102dd5780639698d25a146102d457806398d1e03a146102cb5780639c95332f146102c2578063a06b7ed5146102b9578063a24beb0d146102b0578063ae4d7f9a146102a7578063b32755de1461029e578063b7ddc99214610295578063cfad57a21461028c578063d4ca83f914610283578063de2ea9481461027a578063e1f21c6714610271578063ef12c67e14610268578063f13b7cec1461025f578063f255527814610256578063f851a4401461024d578063f887ea40146102445763fbfa77cf0361000e5761023f612118565b61000e565b5061023f6120ee565b5061023f6120c4565b5061023f61207c565b5061023f611fcd565b5061023f611ec2565b5061023f611d9d565b5061023f6118e2565b5061023f6118bb565b5061023f61186f565b5061023f6115fe565b5061023f61146e565b5061023f6113f5565b5061023f6113d9565b5061023f61132a565b5061023f6112b0565b5061023f611291565b5061023f611253565b5061023f6111ac565b5061023f611169565b5061023f61113f565b5061023f6110ec565b5061023f6110c2565b5061023f611049565b5061023f610f3a565b5061023f610ecb565b5061023f610ea1565b5061023f610d74565b5061023f610d31565b5061023f610cd7565b5061023f610cb0565b5061023f610c3e565b5061023f610b2d565b5061023f610b03565b5061023f610ac0565b5061023f610945565b5061023f61046b565b5061023f610718565b5061023f6106f4565b5061023f61069a565b5061023f61061a565b5061023f61059d565b5061023f610537565b5061023f6104bd565b5061023f610489565b5061023f61042d565b5061023f6103f2565b60009103126103ed57565b600080fd5b50346103ed5760003660031901126103ed576009546040516001600160a01b039091168152602090f35b6001600160a01b038116036103ed57565b50346103ed5760203660031901126103ed5760043561044b8161041c565b60018060a01b0316600052600b6020526020604060002054604051908152f35b50346103ed5760003660031901126103ed5760206040516127108152f35b50346103ed5760003660031901126103ed576001546040516001600160a01b039091168152602090f35b801515036103ed57565b50346103ed5760203660031901126103ed577fa956222e37fe025ff51e5440ac729a9bd417ff91e485e14dcffa2c0ba8894f4060206004356104fe816104b3565b61051360018060a01b036002541633146121eb565b1515600d5460ff60a81b8260a81b169060ff60a81b191617600d55604051908152a1005b50346103ed5760203660031901126103ed576004356105558161041c565b60018060a01b0316600052600a6020526020604060002054604051908152f35b60409060031901126103ed5760043561058d8161041c565b9060243561059a816104b3565b90565b50346103ed5760207f1d5bc0255b943d6a5b5279e8a55d74d620baccbceecb25e87a3558f14c4c118e6105cf36610575565b6002549093916001600160a01b03916105eb90831633146121eb565b169283600052600e825261060f8160406000209060ff801983541691151516179055565b6040519015158152a2005b50346103ed577fa4e46c70ff429a91de7d1716d736e877c7cca1c22ac850b23d242530dd95e474604061064c36610575565b60025490916001600160a01b039161066790831633146121eb565b169081600052600f60205261068b81846000209060ff801983541691151516179055565b825191825215156020820152a1005b50346103ed5760203660031901126103ed577f21167d0d4661af93817ebce920f18986eed3d75d5e1c03f2aed05efcbafbc45260206004356106e760018060a01b036002541633146121eb565b80600855604051908152a1005b50346103ed5760003660031901126103ed5760206107106125ed565b604051908152f35b50346103ed5760403660031901126103ed576004356107368161041c565b60243560018060a01b0361074f81600154163314612142565b8147106107df576000928392839260405192165af161076c6157f3565b501561077457005b60405162461bcd60e51b815260206004820152603a60248201527f416464726573733a20756e61626c6520746f2073656e642076616c75652c207260448201527f6563697069656e74206d617920686176652072657665727465640000000000006064820152608490fd5b60405162461bcd60e51b815260206004820152601d60248201527f416464726573733a20696e73756666696369656e742062616c616e63650000006044820152606490fd5b50634e487b7160e01b600052604160045260246000fd5b6001600160401b03811161084e57604052565b610856610824565b604052565b604081019081106001600160401b0382111761084e57604052565b90601f801991011681019081106001600160401b0382111761084e57604052565b6040519061018082018281106001600160401b0382111761084e57604052565b6020906001600160401b0381116108d0575b60051b0190565b6108d8610824565b6108c9565b81601f820112156103ed578035916108f4836108b7565b926109026040519485610876565b808452602092838086019260051b8201019283116103ed578301905b82821061092c575050505090565b838091833561093a8161041c565b81520191019061091e565b50346103ed576101003660031901126103ed576004356001600160401b0381116103ed5761097a610a8d9136906004016108dd565b610a886024359161098a8361041c565b610a7d610a436084359461099d866104b3565b60a435956109aa8761041c565b6109b960026000541415612784565b600260005533600052600f60205260ff604060002054168015610ab1575b6109e0906127d0565b6109ed600286511461281c565b610a13610a2086516000198101908111610aa4575b6001600160a01b0392839189612297565b5116826006541614613ae3565b855115610a97575b6020860151169060c435923092606435916044359133613b87565b610a6b610a5f610a5285612281565b516001600160a01b031690565b6001600160a01b031690565b6003546001600160a01b03169061568a565b309060e43590613674565b614020565b6100216001600055565b610a9f61226a565b610a28565b610aac612237565b610a02565b50600d5460a01c60ff166109d7565b50346103ed5760203660031901126103ed57600435610ade8161041c565b60018060a01b0316600052600e602052602060ff604060002054166040519015158152f35b50346103ed5760003660031901126103ed576006546040516001600160a01b039091168152602090f35b50346103ed5760e03660031901126103ed57600435610b4b8161041c565b602435610b578161041c565b608435610b63816104b3565b60a43591610b708361041c565b610b7f60026000541415612784565b600260005533600052600f60205260ff604060002054168015610c2f575b610ba6906127d0565b6006546001600160a01b0390811690851603610bd857610a8d93610a889260c435923092606435916044359133613b87565b60405162461bcd60e51b815260206004820152602960248201527f506f736974696f6e4d616e616765723a20696e76616c6964205f636f6c6c617460448201526832b930b62a37b5b2b760b91b6064820152608490fd5b50600d5460a01c60ff16610b9d565b50346103ed5760207f8c0d56805c3b43d441481229dc64bee168253ffe4305f37ab7cfe63b1c4268c6610c7036610575565b6002549093916001600160a01b0391610c8c90831633146121eb565b1692836000526010825261060f8160406000209060ff801983541691151516179055565b50346103ed5760003660031901126103ed57602060ff600d5460a81c166040519015158152f35b50346103ed5760203660031901126103ed577f974fd3c1fcb4653dfc4fb740c4c692cd212d55c28f163f310128cb64d83006756020600435610d2460018060a01b036002541633146121eb565b80600755604051908152a1005b50346103ed5760203660031901126103ed57600435610d4f8161041c565b60018060a01b03166000526010602052602060ff604060002054166040519015158152f35b50346103ed576101003660031901126103ed576004356001600160401b0381116103ed57610da9610e6d9136906004016108dd565b60243590610db68261041c565b610e6460843592610dc6846104b3565b610a6b60a43594610dd68661041c565b610de560026000541415612784565b600260005533600052600f60205260ff604060002054168015610e92575b610e0c906127d0565b610e19600286511461281c565b845115610e85575b60208501805190936001600160a01b0392610e4d9260c435923092916064359160443591881633613b87565b92855115610e78575b51166001600160a01b031690565b60e43590613674565b506100216001600055565b610e8061226a565b610e56565b610e8d61226a565b610e21565b50600d5460a01c60ff16610e03565b50346103ed5760003660031901126103ed576004546040516001600160a01b039091168152602090f35b50346103ed5760003660031901126103ed576020600754604051908152f35b600319906080818301126103ed57600435610f048161041c565b9260243592604435610f158161041c565b92606435916001600160401b0383116103ed5782610180920301126103ed5760040190565b50346103ed57610f4936610eea565b600093918493338552600e602052610f6760ff6040872054166127d0565b601154610f80906001600160a01b03165b933690614181565b6001600160a01b0390931693843b1561104557610fb586610fcd9560405180938192638dffd42160e01b8352600483016143c1565b0381838a5af18015611038575b611025575b5061471e565b803b1561102257819060046040518094819362ccf15560e01b83525af18015611015575b610ffc575b50604051f35b8061100961100f9261083b565b806103e2565b38610ff6565b61101d6123e2565b610ff1565b50fd5b806110096110329261083b565b38610fc7565b6110406123e2565b610fc2565b8580fd5b50346103ed5760203660031901126103ed577f5a272403b402d892977df56625f4164ccaf70ca3863991c43ecfe76a6905b0a1602060043561108a8161041c565b6001546001600160a01b0391906110a49083163314612142565b16806001600160601b0360a01b6002541617600255604051908152a1005b50346103ed5760003660031901126103ed57600d546040516001600160a01b039091168152602090f35b50346103ed5760203660031901126103ed5760043561110a8161041c565b6002546001600160a01b03919061112490831633146121eb565b166001600160601b0360a01b60115416176011556000604051f35b50346103ed5760003660031901126103ed576011546040516001600160a01b039091168152602090f35b50346103ed5760203660031901126103ed576004356111878161041c565b60018060a01b0316600052600f602052602060ff604060002054166040519015158152f35b50346103ed5760e03660031901126103ed576004356111ca8161041c565b61123a602435916111da8361041c565b6084356111e6816104b3565b60a435906111f38261041c565b600094611204600287541415612784565b60028655338652600f60205260ff6040872054168015611244575b611228906127d0565b60c43593606435916044359133613b87565b5060018155604051f35b50600d5460a01c60ff1661121f565b50346103ed5760203660031901126103ed576004356112718161041c565b60018060a01b0316600052600c6020526020604060002054604051908152f35b50346103ed5760003660031901126103ed576020600854604051908152f35b50346103ed5760203660031901126103ed577feac6b3611e79ff0d8ea5daa8439f6b1ab7eea4ebf95f1dd360417f712c3fc30460206004356112f1816104b3565b61130660018060a01b036002541633146121eb565b1515600d5460ff60a01b8260a01b169060ff60a01b191617600d55604051908152a1005b50346103ed5761133936610eea565b600093918493338552600e60205261135760ff6040872054166127d0565b60115461136c906001600160a01b0316610f78565b6001600160a01b0390931693843b15611045576113a186610fcd9560405180938192638dffd42160e01b8352600483016143c1565b0381838a5af180156113cc575b6113b9575b506144e1565b806110096113c69261083b565b386113b3565b6113d46123e2565b6113ae565b50346103ed5760003660031901126103ed576020610710612413565b50346103ed5760203660031901126103ed577f828abcccea18192c21d645e575652c49e20b986dab777906fc473d056b01b6a860206004356114368161041c565b6002546001600160a01b03919061145090831633146121eb565b16806001600160601b0360a01b6009541617600955604051908152a1005b5060c03660031901126103ed576004356001600160401b0381116103ed5761149d610a8d9136906004016108dd565b6024356114a98161041c565b606435608435916114b9836104b3565b6114c860026000541415612784565b600260005533600052600f60205260ff6040600020541680156115ef575b6114ef906127d0565b6115068451600181149081156115e4575b5061281c565b61153b611515610a5286612281565b60065461152a906001600160a01b0316610a5f565b6001600160a01b0390911614613ae3565b34611561575b61155b610a5260a435956115558151612876565b90612297565b3361295a565b611569613b2f565b3482848360018851116115a6575b9061158892916115a19489336137e8565b610a6b610a5f610a5261159b8951612876565b89612297565b611541565b50506006546115c3929150610a6b906001600160a01b0316610a5f565b6115a16115888385846115d9306044358b613674565b945090919250611577565b600291501438611500565b50600d5460a01c60ff166114e6565b50346103ed5760e03660031901126103ed576004356001600160401b0381116103ed5761162f9036906004016108dd565b6024359061163c8261041c565b6044359060a43560843561164f826104b3565b6000948594611662600287541415612784565b60028655338652600f60205260ff6040872054168015611860575b611686906127d0565b8061169d8651600181149081156115e4575061281c565b806116cd575b50506116be945061155b610a5260c435956115558151612876565b6116c86001600055565b604051f35b855160010361179357506005546116ee90610a5f906001600160a01b031681565b906116fb610a5287612281565b91803b1561178f576040516303704f0f60e31b81526001600160a01b03939093166004840152336024840152306044840152606483018290526116be976117679361158893879389938893918290608490829084905af18015611782575b61176f575b505b89336137e8565b8594386116a3565b8061100961177c9261083b565b3861175e565b61178a6123e2565b611759565b8780fd5b6005549096506117ae9150610a5f906001600160a01b031681565b94866117bc610a5287612281565b6003549092906001600160a01b031697803b1561185c576040516303704f0f60e31b81526001600160a01b03948516600482015233602482015298909316604489015260648801526116be96918290608490829084905af1801561184f575b61183c575b50611767611588838584611837306064358b613674565b611760565b806110096118499261083b565b38611820565b6118576123e2565b61181b565b8280fd5b50600d5460a01c60ff1661167d565b50346103ed5760203660031901126103ed5760043561188d8161041c565b600154906001600160a01b03906118a73383851614612142565b6001600160a01b0319909216911617600155005b50346103ed5760003660031901126103ed57602060ff600d5460a01c166040519015158152f35b50346103ed5760a03660031901126103ed57600480356119018161041c565b6024359161190e8361041c565b6044359261191b8461041c565b60643593611928856104b3565b608435946119358661041c565b816000968794611949600287541415612784565b60028655338652602060108152604098899161196a60ff848b2054166127d0565b60035483516312d43a5160e01b81526001600160a01b03918216998a959293919287928e928e9290919089908e83898881865afa988915611d90575b8699611d61575b508151634a3f088d60e01b81526001600160a01b03808d16828a0190815299811660208b0152861660408a015281151560608a0152610100988990829081906080010381875afa988915611d54575b8799611d06575b5050928592610a5f9592610a5f95611a679850600014611c9a57516340d3096b60e11b81526001600160a01b03909316888401908152829184918290819060200103915afa928315611c8d575b92611c60575b5050935b546001600160a01b031690565b91823b15611c5c5789928f8f8f9490611ad58f928d9688948d96519a8b998a988997633cc8e33b60e21b8952880192936000959197969260c09560e086019960018060a01b039283809216885216602087015216604085015215156060840152608083015260a08201520152565b03925af18015611c4f575b611c3c575b501695863b15611c18578a516306d63c1d60e41b81526001600160a01b038916818c019081528a90829081906020010381838c5af18015611c2f575b611c1c575b50823b15611c18578a51631bc5d52960e31b81526001600160a01b03928316818c01908152948316602086015295821660408501521515606084015290921660808201528591839182908490829060a00103925af18015611c0b575b611bf8575b50803b1561185c57845163d3c87bbb60e01b81526001600160a01b03909216938201938452909283919082908490829060200103925af18015611beb575b611bd8575b50611bd56001600055565b51f35b80611009611be59261083b565b38611bca565b611bf36123e2565b611bc5565b80611009611c059261083b565b38611b87565b611c136123e2565b611b82565b8880fd5b80611009611c299261083b565b38611b26565b611c376123e2565b611b21565b80611009611c499261083b565b38611ae5565b611c576123e2565b611ae0565b8c80fd5b611c7f9250803d10611c86575b611c778183610876565b8101906123ef565b3880611a56565b503d611c6d565b611c956123e2565b611a50565b51637092736960e11b81526001600160a01b0390931688840190815282918491829081906020015b03915afa928315611cf9575b92611cdc575b505093611a5a565b611cf29250803d10611c8657611c778183610876565b3880611cd4565b611d016123e2565b611cce565b610a5f9592995092611d37611a6798959285610a5f9996903d10611d4d575b611d2f8183610876565b8101906138e0565b5050505050505099929550929581949750611a03565b503d611d25565b611d5c6123e2565b6119fc565b611d82919950843d8611611d89575b611d7a8183610876565b8101906123fe565b97386119ad565b503d611d70565b611d986123e2565b6119a6565b50346103ed5760603660031901126103ed57600435611dbb8161041c565b6020611e1e60243592611dcd8461041c565b6001546001600160a01b039490611de79086163314612142565b60405163095ea7b360e01b81526001600160a01b039091166004820152604480356024830152909485938492600092918491820190565b0393165af18015611e57575b611e3057005b6100219060203d8111611e50575b611e488183610876565b8101906123cd565b503d611e3e565b611e5f6123e2565b611e2a565b81601f820112156103ed57803591611e7b836108b7565b92611e896040519485610876565b808452602092838086019260051b8201019283116103ed578301905b828210611eb3575050505090565b81358152908301908301611ea5565b50346103ed5760603660031901126103ed576001600160401b036004358181116103ed57611ef49036906004016108dd565b6024358281116103ed57611f0c903690600401611e64565b916044359081116103ed57611f25903690600401611e64565b9160018060a01b03611f3c816002541633146121eb565b60005b8351811015611f96578082611f57611f919387612297565b5116611f638286612297565b5181600052600c6020600b81526040928360002055611f82858b612297565b5193600052526000205561224e565b611f3f565b6040517fae32d569b058895b9620d6552b09aaffedc9a6f396be4d595a224ad09f8b21399080611fc8888789846122ed565b0390a1005b50346103ed57611fdc36610eea565b600093918493338552600e602052611ffa60ff6040872054166127d0565b60115461200f906001600160a01b0316610f78565b6001600160a01b0390931693843b156110455761204486610fcd9560405180938192638dffd42160e01b8352600483016143c1565b0381838a5af1801561206f575b61205c575b50614c36565b806110096120699261083b565b38612056565b6120776123e2565b612051565b50346103ed5760403660031901126103ed5761002160043561209d8161041c565b602435906120aa8261041c565b6120bf60018060a01b036002541633146121eb565b612359565b50346103ed5760003660031901126103ed576002546040516001600160a01b039091168152602090f35b50346103ed5760003660031901126103ed576005546040516001600160a01b039091168152602090f35b50346103ed5760003660031901126103ed576003546040516001600160a01b039091168152602090f35b1561214957565b60405162461bcd60e51b815260206004820152601560248201527423b7bb32b93730b136329d103337b93134b23232b760591b6044820152606490fd5b6006546001600160a01b0316330361219a57565b60405162461bcd60e51b815260206004820152602360248201527f42617365506f736974696f6e4d616e616765723a20696e76616c69642073656e6044820152623232b960e91b6064820152608490fd5b156121f257565b60405162461bcd60e51b815260206004820152601e60248201527f42617365506f736974696f6e4d616e616765723a20666f7262696464656e00006044820152606490fd5b50634e487b7160e01b600052601160045260246000fd5b600190600019811461225e570190565b612266612237565b0190565b50634e487b7160e01b600052603260045260246000fd5b60209080511561228f570190565b61226661226a565b60209181518110156122ac575b60051b010190565b6122b461226a565b6122a4565b90815180825260208080930193019160005b8281106122d9575050505090565b8351855293810193928101926001016122cb565b91939290936060830194606084528051809652608084019560208092019060005b81811061233c575050509461232e9161059a9596858303908601526122b9565b9160408184039101526122b9565b82516001600160a01b03168952978301979183019160010161230e565b6001600160a01b039081166000818152600a602052604090205491929180156123c7577f4f1b51dd7a2fcb861aa2670f668be66835c4ee12b4bbbf037e4d0018f39819e493606093600060408120556123b383828661568a565b6040519384521660208301526040820152a1565b50505050565b908160209103126103ed575161059a816104b3565b506040513d6000823e3d90fd5b908160209103126103ed575190565b908160209103126103ed575161059a8161041c565b60035460009061242d90610a5f906001600160a01b031681565b604080516352bde2cd60e11b8152919060209060049082858381875afa9485156125e0575b86956125c1575b50855b85811061246c5750505050505090565b8151631b792d9160e31b81528381018281528590829081906020010381895afa9081156125b4575b600091612597575b5082516301adb0e760e31b81526001600160a01b03821685820190815286908290819060200103818a5afa90811561258a575b60009161256d575b506124ec575b506124e79061224e565b61245c565b825163783a2b6760e11b81526001600160a01b0390911684820190815291976124e79261253a9291908790839081906020015b03818b5afa918215612560575b600092612541575b50615497565b96906124dd565b612559919250873d8911611c8657611c778183610876565b9038612534565b6125686123e2565b61252c565b6125849150863d8811611e5057611e488183610876565b386124d7565b6125926123e2565b6124cf565b6125ae9150853d8711611d8957611d7a8183610876565b3861249c565b6125bc6123e2565b612494565b6125d9919550833d8511611c8657611c778183610876565b9338612459565b6125e86123e2565b612452565b60035460009061260790610a5f906001600160a01b031681565b604080516352bde2cd60e11b8152919060209060049082858381875afa948515612777575b8695612758575b50855b8581106126465750505050505090565b8151631b792d9160e31b81528381018281528590829081906020010381895afa90811561274b575b60009161272e575b5082516301adb0e760e31b81526001600160a01b03821685820190815286908290819060200103818a5afa908115612721575b600091612704575b506126c6575b506126c19061224e565b612636565b825163114f1b5560e31b81526001600160a01b0390911684820190815291976126c1926126fd92919087908390819060200161251f565b96906126b7565b61271b9150863d8811611e5057611e488183610876565b386126b1565b6127296123e2565b6126a9565b6127459150853d8711611d8957611d7a8183610876565b38612676565b6127536123e2565b61266e565b612770919550833d8511611c8657611c778183610876565b9338612633565b61277f6123e2565b61262c565b1561278b57565b60405162461bcd60e51b815260206004820152601f60248201527f5265656e7472616e637947756172643a207265656e7472616e742063616c6c006044820152606490fd5b156127d757565b60405162461bcd60e51b815260206004820152601a60248201527f506f736974696f6e4d616e616765723a20666f7262696464656e0000000000006044820152606490fd5b1561282357565b60405162461bcd60e51b815260206004820152602560248201527f506f736974696f6e4d616e616765723a20696e76616c6964205f706174682e6c6044820152640cadccee8d60db1b6064820152608490fd5b60001981019190821161288557565b61288d612237565b565b1561289657565b60405162461bcd60e51b815260206004820152603060248201527f42617365506f736974696f6e4d616e616765723a206d61726b2070726963652060448201526f1b1bddd95c881d1a185b881b1a5b5a5d60821b6064820152608490fd5b156128fb57565b60405162461bcd60e51b815260206004820152603160248201527f42617365506f736974696f6e4d616e616765723a206d61726b207072696365206044820152701a1a59da195c881d1a185b881b1a5b5a5d607a1b6064820152608490fd5b6003546001600160a01b03169593949093919060008115612c8f5750604051637092736960e11b81526001600160a01b0385166004820152602081806024810103816001600160a01b038c165afa908115612c82575b600091612c64575b50925b8115612c53576129cd908411156128f4565b6129d8868286612d01565b6040516312d43a5160e01b81526004936001600160a01b0391906020828781868e165afa918215612c46575b600092612c26575b508554612a2390610a5f906001600160a01b031681565b803b156103ed5760408051633cc8e33b60e21b81526001600160a01b03808c16828b01908152818a166020820152908b16928101929092528615156060830152608082018c905260a0820193909352600160c0820152600091839182908490829060e00103925af18015612c19575b612c06575b501693843b156103ed576040516306d63c1d60e41b81526001600160a01b038916858201908152600090829081906020010381838a5af18015612bf9575b612be6575b50600554612af290610a5f906001600160a01b031681565b803b156103ed5760408051630f8ee8bb60e11b81526001600160a01b03808a1688830190815296811660208801529093169085015260608401889052911515608084015291600091839182908490829060a00103925af18015612bd9575b612bc6575b50813b156103ed5760405163d3c87bbb60e01b81526001600160a01b0390951690850190815261288d94916000918391908290849082906020015b03925af18015612bb9575b612ba6575b50613517565b80611009612bb39261083b565b38612ba0565b612bc16123e2565b612b9b565b80611009612bd39261083b565b38612b55565b612be16123e2565b612b50565b80611009612bf39261083b565b38612ada565b612c016123e2565b612ad5565b80611009612c139261083b565b38612a97565b612c216123e2565b612a92565b612c3f91925060203d8111611d8957611d7a8183610876565b9038612a0c565b612c4e6123e2565b612a04565b612c5f9084101561288f565b6129cd565b612c7c915060203d8111611c8657611c778183610876565b386129b8565b612c8a6123e2565b6129b0565b6040516340d3096b60e11b81526001600160a01b0386166004820152602081806024810103816001600160a01b038d165afa918215612cf4575b91612cd6575b50926129bb565b612cee915060203d8111611c8657611c778183610876565b38612ccf565b612cfc6123e2565b612cc9565b90918015612f7357600354612d2090610a5f906001600160a01b031681565b6040516301adb0e760e31b81526001600160a01b038416600482015290936020918281602481895afa908115612f66575b600091612f49575b50612f3b5715612e71576001600160a01b0383166000908152600b6020526040902054928315159485612df2575b5050505050612d9257565b60405162461bcd60e51b815260206004820152602e60248201527f42617365506f736974696f6e4d616e616765723a206d617820676c6f62616c2060448201526d1b1bdb99dcc8195e18d95959195960921b6064820152608490fd5b0390fd5b60405163783a2b6760e11b81526001600160a01b039092166004830152939450612e3c93829082908180602481015b03915afa918215612e64575b600092612e47575b5050615497565b113880808080612d87565b612e5d9250803d10611c8657611c778183610876565b3880612e35565b612e6c6123e2565b612e2d565b6001600160a01b0383166000908152600c6020526040902054928315159485612efd575b5050505050612ea057565b60405162461bcd60e51b815260206004820152602f60248201527f42617365506f736974696f6e4d616e616765723a206d617820676c6f62616c2060448201526e1cda1bdc9d1cc8195e18d959591959608a1b6064820152608490fd5b60405163114f1b5560e31b81526001600160a01b039092166004830152939450612f309382908290818060248101612e21565b113880808080612e95565b9192905061288d9350612f78565b612f609150833d8511611e5057611e488183610876565b38612d59565b612f6e6123e2565b612d51565b505050565b600354612f8f90610a5f906001600160a01b031681565b604080516342980b7960e11b81526004959194919260209182818981855afa9081156134ee575b6000916134d1575b50612fc7612413565b95612fd06125ed565b9415613351576001600160a01b0382166000908152600b6020526040902054801515908161333e575b506132df576001600160a01b0381166000908152600b602052604090205486858215159384613262575b50505050613203576130f3836130b38a8261310f99989661310a988d613104985b81516352f55eed60e01b81526001600160a01b0382168782019081529092908490849081906020010381885afa9283156131f6575b6000936131d7575b5051630a48d5a960e01b81526001600160a01b0390911686820190815260208101929092529586918291604090910190565b0381845afa9384156131ca575b6000946131ab575b508c51638b9d2c3b60e01b815292839182905afa92831561319e575b60009361317f575b5050615612565b6130fb615634565b50612710900490565b94615497565b615497565b11613118575050565b612dee92505191829162461bcd60e51b8352820160809060208152603260208201527f42617365506f736974696f6e4d616e616765723a2073796e74686574696355736040820152711959155cd918d55cd908195e18d95959195960721b60608201520190565b613196929350803d10611c8657611c778183610876565b9038806130ec565b6131a66123e2565b6130e4565b6131c3919450823d8411611c8657611c778183610876565b92386130c8565b6131d26123e2565b6130c0565b6131ef919350843d8611611c8657611c778183610876565b9138613081565b6131fe6123e2565b613079565b865162461bcd60e51b81526020818a0181815260399181019190915260008051602061584083398151915260408201527f617820676c6f62616c206c6f6e67732065786365656465643200000000000000606082015281906080010390fd5b8b5163783a2b6760e11b81526001600160a01b03909116818e019081529394506132ab93909190829081906020015b0381895afa9081156132d2575b6000916132b55750615497565b1138868582613023565b6132cc9150873d8911611c8657611c778183610876565b38612534565b6132da6123e2565b61329e565b875162461bcd60e51b81526020818b0181815260399181019190915260008051602061584083398151915260408201527f617820676c6f62616c206c6f6e67732065786365656465643100000000000000606082015281906080010390fd5b905061334a8789615497565b1138612ff9565b6001600160a01b0382166000908152600c602052604090205480151590816134be575b5061345f576001600160a01b0381166000908152600c602052604090205486858215159384613422575b505050506133c3576130f3836130b38a8261310f99989661310a988d61310498613044565b865162461bcd60e51b81526020818a01818152603a9181019190915260008051602061584083398151915260408201527f617820676c6f62616c2073686f72747320657863656564656432000000000000606082015281906080010390fd5b8b5163114f1b5560e31b81526001600160a01b03909116818e019081529394506134559390919082908190602001613291565b113886858261339e565b875162461bcd60e51b81526020818b01818152603a9181019190915260008051602061584083398151915260408201527f617820676c6f62616c2073686f72747320657863656564656431000000000000606082015281906080010390fd5b90506134ca8787615497565b1138613374565b6134e89150833d8511611d8957611d7a8183610876565b38612fbe565b6134f66123e2565b612fb6565b91908260409103126103ed576020825192015161059a8161041c565b6009546001600160a01b031691908215612f73576040805163534ef88360e01b81526001600160a01b03831660048201527fc2414023ce7002ee98557d1e7be21e5559073336f2217ee5f9b2e50fd85f71ee946136019291908290829060249082905afa918215613667575b6000918293613633575b50600354600491906020906135ac90610a5f906001600160a01b031681565b825163318bc68960e01b815293849182905afa918215613626575b600092613606575b50516001600160a01b0395861681526020810196909652604086015260608501529091166080830152819060a0820190565b0390a1565b61361f91925060203d8111611c8657611c778183610876565b90386135cf565b61362e6123e2565b6135c7565b81613658929450600493503d8511613660575b6136508183610876565b8101906134fb565b92909161358d565b503d613646565b61366f6123e2565b613583565b805190600282146136d65760405162461bcd60e51b815260206004820152602960248201527f42617365506f736974696f6e4d616e616765723a20696e76616c6964205f70616044820152680e8d05cd8cadccee8d60bb1b6064820152608490fd5b602091156137db575b606460018060a01b03916000836040818785015116938051600110156137ce575b015116938060035416906040519889968795634998b10960e11b8752600487015260248601521660448401525af19182156137c1575b6000926137a1575b5081106137485790565b60405162461bcd60e51b815260206004820152602b60248201527f42617365506f736974696f6e4d616e616765723a20696e73756666696369656e60448201526a1d08185b5bdd5b9d13dd5d60aa1b6064820152608490fd5b6137ba91925060203d8111611c8657611c778183610876565b903861373e565b6137c96123e2565b613736565b6137d661226a565b613700565b6137e361226a565b6136df565b9282826137fa95979497969396613934565b613802575090565b906138b56138996007546138386138176154fe565b916138286127109384831115615537565b82038281116138d3575b85615612565b613840615634565b50049361385761384e6154fe565b85871115615537565b8484039384116138c6575b613882815160001981019081116138b9575b6001600160a01b0392612297565b51169283600052600a602052604060002054615497565b6001600160a01b039092166000908152600a6020526040902090565b5590565b6138c1612237565b613874565b6138ce612237565b613862565b6138db612237565b613832565b9190826101009103126103ed5781519160208101519160408201519160608101519160808201519160a08101519160e060c083015161391e816104b3565b92015190565b9061271091820180921161288557565b949392908315613a95578415613ad857613958610a52826115556139b99451612876565b958694613972610a5f610a5f60035460018060a01b031690565b604051634a3f088d60e01b81526001600160a01b03938416600482015296831660248801529390911660448601521515606485015261010093908490829081906084820190565b0381855afa908115613acb575b6000948592613aa0575b50508315613a9557613a4f613a49613a2e6020613a4f96613a54966139f8613a669b8b615497565b604051630a48d5a960e01b81526001600160a01b03909d1660048e015260248d0192909252909a92839190829081906044820190565b03915afa908115613a88575b600091613a6a575b5083615497565b94615583565b61566d565b93613a60600854613924565b90615612565b1090565b613a82915060203d8111611c8657611c778183610876565b38613a42565b613a906123e2565b613a3a565b505050505050600090565b613abb93955080919250903d10611d4d57611d2f8183610876565b50505050505092909238806139d0565b613ad36123e2565b6139c6565b505050505050600190565b15613aea57565b60405162461bcd60e51b815260206004820152601e60248201527f506f736974696f6e4d616e616765723a20696e76616c6964205f7061746800006044820152606490fd5b34613b3657565b6006546001600160a01b0316803b156103ed57600060049160405192838092630d0e30db60e41b825234905af18015613b7a575b613b715750565b61288d9061083b565b613b826123e2565b613b6a565b60035493976001600160a01b03909416969495909493929160008215613ee157506040516340d3096b60e11b81526001600160a01b0384166004820152602081806024810103816001600160a01b038d165afa908115613ed4575b600091613eb6575b50935b8215613ea557613bff9085101561288f565b604051986312d43a5160e01b8a528860209a6004968c82898160018060a01b038097165afa918215613e98575b600092613e79575b508754613c4b90610a5f906001600160a01b031681565b803b156103ed5760408051633cc8e33b60e21b81526001600160a01b03808e16828d01908152818a166020820152908b16928101929092528815156060830152608082018e905260a0820193909352600060c0820181905291839182908490829060e00103925af18015613e6c575b613e59575b501695863b156103ed576040516306d63c1d60e41b81526001600160a01b038b168188019081528c958a936000938a93613d87939190869082908f9082908490829060200103925af18015613e4c575b613e39575b506005548e90613d2e90610a5f906001600160a01b031681565b976040519b8c9a8b998a98632662166b60e01b8a52890195919360c095919897939860e088019960018060a01b038097818094168b521660208a015216604088015260608701526080860152151560a085015216910152565b03925af1968715613e2c575b600097613e0d575b5050813b156103ed5760405163d3c87bbb60e01b81526001600160a01b0390951690850190815261059a94916000918391908290849082906020015b03925af18015613e00575b613ded575b50613f53565b80611009613dfa9261083b565b38613de7565b613e086123e2565b613de2565b613e24929750803d10611c8657611c778183610876565b943880613d9b565b613e346123e2565b613d93565b80611009613e469261083b565b38613d14565b613e546123e2565b613d0f565b80611009613e669261083b565b38613cbf565b613e746123e2565b613cba565b613e919192508d803d10611d8957611d7a8183610876565b9038613c34565b613ea06123e2565b613c2c565b613eb1908511156128f4565b613bff565b613ece915060203d8111611c8657611c778183610876565b38613bea565b613edc6123e2565b613be2565b604051637092736960e11b81526001600160a01b0385166004820152602081806024810103816001600160a01b038e165afa918215613f46575b91613f28575b5093613bed565b613f40915060203d8111611c8657611c778183610876565b38613f21565b613f4e6123e2565b613f1b565b6009546001600160a01b031691908215612f73576040805163534ef88360e01b81526001600160a01b0383166004820152938190859060249082905afa8015614013575b6000948591613ff0575b508415613fe9577f474c763ff84bf2c2039a6d9fea955ecd0f724030e3c365b91169c6a16fe751b79460046136019360206135ac610a5f610a5f60035460018060a01b031690565b5050505050565b90508161400a9295503d8611613660576136508183610876565b93909338613fa1565b61401b6123e2565b613f97565b6006546001600160a01b03908116803b156103ed57602492604051948593632e1a7d4d60e01b85528260048601528460008098819882988380995af18015614091575b614082575b5083918315614078575b1690f150565b6108fc9250614072565b61408b9061083b565b38614068565b6140996123e2565b614063565b6020906001600160401b0381116140bb575b601f01601f19160190565b6140c3610824565b6140b0565b9080601f830112156103ed578135916140e0836108b7565b926040906140f082519586610876565b808552602093848087019260051b850101938185116103ed57858101925b85841061411f575050505050505090565b83356001600160401b0381116103ed57820183603f820112156103ed57878101359161414a8361409e565b61415688519182610876565b838152858885850101116103ed5760008a8581968b839701838601378301015281520193019261410e565b9190610180838203126103ed57614196610897565b83358152926001600160401b039160208201358381116103ed57816141bc9184016108dd565b602086015260408201358381116103ed57816141d9918401611e64565b604086015260608201358381116103ed57816141f6918401611e64565b606086015260808201358381116103ed5781614213918401611e64565b608086015260a08201358381116103ed5781614230918401611e64565b60a086015260c08201358381116103ed578161424d918401611e64565b60c086015260e08201358381116103ed578161426a918401611e64565b60e0860152610100808301358481116103ed5782614289918501611e64565b90860152610120808301358481116103ed57826142a7918501611e64565b90860152610140808301358481116103ed57826142c59185016140c8565b9086015261016092838301359081116103ed576142e292016108dd565b90830152565b90815180825260208080930193019160005b828110614308575050505090565b83516001600160a01b0316855293810193928101926001016142fa565b919082519283825260005b848110614351575050826000602080949584010152601f8019910116010190565b602081830181015184830182015201614330565b908082519081815260208091019281808460051b8301019501936000915b8483106143935750505050505090565b90919293949584806143b1600193601f198682030187528a51614325565b9801930193019194939290614383565b9061059a9160208152815160208201526020820151906143ef610180928360408401526101a08301906142e8565b9161446861445461444061442c614418604089015197601f1998898983030160608a01526122b9565b6060890151888883030160808901526122b9565b6080880151878783030160a08801526122b9565b60a0870151868683030160c08701526122b9565b60c0860151858583030160e08601526122b9565b6144d16144ba6144a361448c60e089015194610100958989830301878a01526122b9565b9388015193610120948888830301868901526122b9565b9287015192610140938787830301858801526122b9565b918601519161016092868683030184870152614365565b94015192828503019101526142e8565b6003546040516312d43a5160e01b81526001600160a01b0391821693929190602081600481885afa9081156146a9575b60009161468b575b501693843b156103ed5760405163929d57b560e01b8082526001600160a01b0395909516600482015260016024820152600081604481838a5af1801561467e575b61466b575b50600d5461457790610a5f906001600160a01b031681565b60115461458c906001600160a01b0316610a5f565b93813b156103ed5760405163239f538560e01b81526001600160a01b03948516600482015260248101919091529183166044830152929091166064820152906000908290608490829084905af1801561465e575b61464b575b506003546001600160a01b0316823b156103ed576040519182526001600160a01b0316600482015260006024820181905290918290604490829084905af1801561463e575b6146315750565b8061100961288d9261083b565b6146466123e2565b61462a565b806110096146589261083b565b386145e5565b6146666123e2565b6145e0565b806110096146789261083b565b3861455f565b6146866123e2565b61455a565b6146a3915060203d8111611d8957611d7a8183610876565b38614519565b6146b16123e2565b614511565b90816101209103126103ed5780516146cd8161041c565b9160208201519160408101516146e28161041c565b9160608201516146f18161041c565b9160808101519160a0820151614706816104b3565b9160c08101519161010060e083015161391e816104b3565b6147b89161472c818361515e565b600354604080516312d43a5160e01b81526004969193926001600160a01b039081169291602080828b81885afa918215614bd0575b600092614bb1575b50600d5461012090879061478790610a5f906001600160a01b031681565b895163d3bab1d160e01b81526001600160a01b038c16818f0190815260208101939093529b8c928391829160400190565b03915afa8015614ba4575b60008b8193829c8394614b5c575b50610a5f610a5f61485492878e600089600014614b1257506011546148319284929091614806906001600160a01b0316610a5f565b9051637092736960e11b81526001600160a01b03909216898301908152919384928391829160200190565b03915afa918215614b05575b600092611c6057505093546001600160a01b031690565b90813b156103ed5760008e6148bd8f938f948f988599519a8b998a988997633cc8e33b60e21b8952880192936001959197969260c09560e0860199888060a01b039283809216885216602087015216604085015215156060840152608083015260a08201520152565b03925af18015614af8575b614ae5575b501690813b156103ed5784516306d63c1d60e41b81526001600160a01b03841689820190815260009082908190602001038183875af18015614ad8575b614ac5575b50813b156103ed57845163929d57b560e01b8082526001600160a01b038516828b01908152600160208201529095919060009082908190604001038183885af18015614ab8575b614aa5575b50600d5461497390610a5f906001600160a01b031681565b60115490919061498b906001600160a01b0316610a5f565b91803b156103ed57875163438f190360e01b81526001600160a01b03808b16828e0190815260208101949094529485166040840152939092166060820152600091839182908490829060800103925af18015614a98575b614a85575b50803b156103ed57835163d3c87bbb60e01b81526001600160a01b03831688820190815260009082908190602001038183865af18015614a78575b614a65575b50803b156103ed5792519182526001600160a01b031694810194855260006020860181905261288d9591929091839190829084908290604001612b90565b80611009614a729261083b565b38614a27565b614a806123e2565b614a22565b80611009614a929261083b565b386149e7565b614aa06123e2565b6149e2565b80611009614ab29261083b565b3861495b565b614ac06123e2565b614956565b80611009614ad29261083b565b3861490f565b614ae06123e2565b61490a565b80611009614af29261083b565b386148cd565b614b006123e2565b6148c8565b614b0d6123e2565b61483d565b6011549093611cc29390928392614b31906001600160a01b0316610a5f565b90516340d3096b60e11b81526001600160a01b039092168a8301908152919485928391829160200190565b925093509a508891506101203d61012011614b9d575b614b7c8183610876565b8101614b87916146b6565b5050509e935095919093509280959d94506147d1565b503d614b72565b614bac6123e2565b6147c3565b81614bc99293503d8411611d8957611d7a8183610876565b9038614769565b614bd86123e2565b614761565b9190826101009103126103ed578151614bf58161041c565b916020810151916040820151614c0a8161041c565b916060810151916080820151614c1f816104b3565b9160a08101519160e060c083015161391e816104b3565b600354604080516312d43a5160e01b8152600495614cc49592936001600160a01b0390811692602080828b81885afa9182156150a9575b60009261508a575b50600d54610100908790614c9390610a5f906001600160a01b031681565b8951630130197760e11b81526001600160a01b038c16818f0190815260208101939093529b8c928391829160400190565b03915afa801561507d575b60008b8193829c8394615039575b50610a5f610a5f614d3d92878e600089600014614fef57506011546148319284929091614d12906001600160a01b0316610a5f565b90516340d3096b60e11b81526001600160a01b03909216898301908152919384928391829160200190565b90813b156103ed5760008e614da78f938f948f988599519a8b998a988997633cc8e33b60e21b8952880192936000959197969260c09560e086019960018060a01b039283809216885216602087015216604085015215156060840152608083015260a08201520152565b03925af18015614fe2575b614fcf575b501690813b156103ed5784516306d63c1d60e41b81526001600160a01b03841689820190815260009082908190602001038183875af18015614fc2575b614faf575b50813b156103ed57845163929d57b560e01b8082526001600160a01b038516828b01908152600160208201529095919060009082908190604001038183885af18015614fa2575b614f8f575b50600d54614e5d90610a5f906001600160a01b031681565b601154909190614e75906001600160a01b0316610a5f565b91803b156103ed5787516339bfd4e760e01b81526001600160a01b03808b16828e0190815260208101949094529485166040840152939092166060820152600091839182908490829060800103925af18015614f82575b614f6f575b50803b156103ed57835163d3c87bbb60e01b81526001600160a01b03831688820190815260009082908190602001038183865af18015614f62575b614f4f575b50803b156103ed5792519182526001600160a01b031694810194855260006020860181905261288d9591929091839190829084908290604001613dd7565b80611009614f5c9261083b565b38614f11565b614f6a6123e2565b614f0c565b80611009614f7c9261083b565b38614ed1565b614f8a6123e2565b614ecc565b80611009614f9c9261083b565b38614e45565b614faa6123e2565b614e40565b80611009614fbc9261083b565b38614df9565b614fca6123e2565b614df4565b80611009614fdc9261083b565b38614db7565b614fea6123e2565b614db2565b6011549093611cc2939092839261500e906001600160a01b0316610a5f565b9051637092736960e11b81526001600160a01b039092168a8301908152919485928391829160200190565b925093509a508891506101003d61010011615076575b6150598183610876565b810161506491614bdd565b5050509d9250949080959d9450614cdd565b503d61504f565b6150856123e2565b614ccf565b816150a29293503d8411611d8957611d7a8183610876565b9038614c75565b6150b16123e2565b614c6d565b156150bd57565b60405162461bcd60e51b815260206004820152601d60248201527f506f736974696f6e4d616e616765723a206c6f6e67206465706f7369740000006044820152606490fd5b1561510957565b60405162461bcd60e51b815260206004820152602760248201527f506f736974696f6e4d616e616765723a206c6f6e67206c6576657261676520646044820152666563726561736560c81b6064820152608490fd5b600d5460405163d3bab1d160e01b81526001600160a01b0383166004820152602481019390935261012092908382806044810103816001600160a01b0385165afa938415615321575b600093849585938695879488936152d8575b505060ff906151c9858489612d01565b60a81c16156152cf5780156152cf57615247946151e78415156150b6565b6003546151fe90610a5f906001600160a01b031681565b604051634a3f088d60e01b81526001600160a01b039485166004820152958416602487015292166044850152151560648401529192610100928391859190829081906084820190565b03915afa9283156152c2575b6000928394615299575b50508115613fe957613a5461529293613a4f613a4961528c61288d99615286613a4f9789615497565b9961534a565b83615497565b1015615102565b80919294506152b49350903d10611d4d57611d2f8183610876565b50505050505091388061525d565b6152ca6123e2565b615253565b50505050505050565b939750935096505060ff93506153039250803d1061531a575b6152fb8183610876565b8101906146b6565b5095999698939794969295509293909250386151b9565b503d6152f1565b6153296123e2565b6151a7565b604d811161533d575b600a0a90565b615345612237565b615337565b9080156154905760115461059a929061536b906001600160a01b0316610a5f565b6040516340d3096b60e11b81526001600160a01b0383166004820152602093909290918491908290859060249082905afa938415615483575b60009461545e575b506003546153f79291906153ca90610a5f906001600160a01b031681565b6040516323b95ceb60e21b81526001600160a01b0390921660048301529092839190829081906024820190565b03915afa938415615451575b600094615426575b50506154209161541a91615612565b9161532e565b9061566d565b61541a92945061542093918161544792903d10611c8657611c778183610876565b939181935061540b565b6154596123e2565b615403565b8291945061547b906153f7933d8411611c8657611c778183610876565b9390916153ac565b61548b6123e2565b6153a4565b5050600090565b908101908181116154f1575b81106154ac5790565b60405162461bcd60e51b815260206004820152601b60248201527f536166654d6174683a206164646974696f6e206f766572666c6f7700000000006044820152606490fd5b6154f9612237565b6154a3565b6040519061550b8261085b565b601e82527f536166654d6174683a207375627472616374696f6e206f766572666c6f7700006020830152565b1561553f5750565b60405162461bcd60e51b815260206004820152908190612dee906024830190614325565b811561556d570490565b634e487b7160e01b600052601260045260246000fd5b801561560c57612710816000190481116001166155ff575b6155a88183029283615563565b036155b05790565b60405162461bcd60e51b815260206004820152602160248201527f536166654d6174683a206d756c7469706c69636174696f6e206f766572666c6f6044820152607760f81b6064820152608490fd5b615607612237565b61559b565b50600090565b90811561549057816000190481116001166155ff576155a88183029283615563565b604051906156418261085b565b601a82527f536166654d6174683a206469766973696f6e206279207a65726f0000000000006020830152565b9061059a9161568561567d615634565b831515615537565b615563565b60405163a9059cbb60e01b60208083019182526001600160a01b039490941660248301526044808301959095529381529192906156c8606484610876565b60018060a01b031690604051926156de8461085b565b8484527f5361666545524332303a206c6f772d6c6576656c2063616c6c206661696c656485850152823b1561574f5761572a939260009283809351925af16157246157f3565b90615823565b8051908161573757505050565b8261288d9361574a9383010191016123cd565b615794565b60405162461bcd60e51b815260048101869052601d60248201527f416464726573733a2063616c6c20746f206e6f6e2d636f6e74726163740000006044820152606490fd5b1561579b57565b60405162461bcd60e51b815260206004820152602a60248201527f5361666545524332303a204552433230206f7065726174696f6e20646964206e6044820152691bdd081cdd58d8d9595960b21b6064820152608490fd5b3d1561581e573d906158048261409e565b916158126040519384610876565b82523d6000602084013e565b606090565b9091901561582f575090565b81511561553f5750805190602001fdfe42617365506f736974696f6e4d616e616765723a2073796e746865746963206da26469706673582212201281adeb4b9a4118b9e04e8dd5280f0010388afe427890f44da65f08df72499264736f6c63430008100033",
  "linkReferences": {},
  "deployedLinkReferences": {}
}