{
  "_format": "hh-sol-artifact-1",
  "contractName": "RektDistributor",
  "sourceName": "contracts/RektDistributor.sol",
  "abi": [
    {
      "inputs": [],
      "stateMutability": "nonpayable",
      "type": "constructor"
    },
    {
      "anonymous": false,
      "inputs": [
        {
          "indexed": true,
          "internalType": "address",
          "name": "recipient",
          "type": "address"
        },
        {
          "indexed": false,
          "internalType": "uint256",
          "name": "amount",
          "type": "uint256"
        }
      ],
      "name": "CanClaim",
      "type": "event"
    },
    {
      "anonymous": false,
      "inputs": [
        {
          "indexed": true,
          "internalType": "address",
          "name": "user",
          "type": "address"
        },
        {
          "indexed": false,
          "internalType": "uint128",
          "name": "nonce",
          "type": "uint128"
        },
        {
          "indexed": false,
          "internalType": "uint256",
          "name": "amount",
          "type": "uint256"
        },
        {
          "indexed": false,
          "internalType": "address",
          "name": "referrer",
          "type": "address"
        },
        {
          "indexed": false,
          "internalType": "uint256",
          "name": "timestamp",
          "type": "uint256"
        }
      ],
      "name": "Claim",
      "type": "event"
    },
    {
      "anonymous": false,
      "inputs": [
        {
          "indexed": true,
          "internalType": "address",
          "name": "recipient",
          "type": "address"
        },
        {
          "indexed": false,
          "internalType": "uint256",
          "name": "amount",
          "type": "uint256"
        }
      ],
      "name": "HasClaimed",
      "type": "event"
    },
    {
      "anonymous": false,
      "inputs": [
        {
          "indexed": true,
          "internalType": "address",
          "name": "previousOwner",
          "type": "address"
        },
        {
          "indexed": true,
          "internalType": "address",
          "name": "newOwner",
          "type": "address"
        }
      ],
      "name": "OwnershipTransferred",
      "type": "event"
    },
    {
      "inputs": [],
      "name": "INIT_CLAIM",
      "outputs": [
        {
          "internalType": "uint256",
          "name": "",
          "type": "uint256"
        }
      ],
      "stateMutability": "view",
      "type": "function"
    },
    {
      "inputs": [],
      "name": "MAX_ADDRESSES",
      "outputs": [
        {
          "internalType": "uint256",
          "name": "",
          "type": "uint256"
        }
      ],
      "stateMutability": "view",
      "type": "function"
    },
    {
      "inputs": [],
      "name": "MAX_REFER_TOKEN",
      "outputs": [
        {
          "internalType": "uint256",
          "name": "",
          "type": "uint256"
        }
      ],
      "stateMutability": "view",
      "type": "function"
    },
    {
      "inputs": [],
      "name": "MAX_RUSH_TOKEN_AMOUNT",
      "outputs": [
        {
          "internalType": "uint256",
          "name": "",
          "type": "uint256"
        }
      ],
      "stateMutability": "view",
      "type": "function"
    },
    {
      "inputs": [],
      "name": "ULP_PRECISION",
      "outputs": [
        {
          "internalType": "uint256",
          "name": "",
          "type": "uint256"
        }
      ],
      "stateMutability": "view",
      "type": "function"
    },
    {
      "inputs": [
        {
          "internalType": "address",
          "name": "",
          "type": "address"
        }
      ],
      "name": "_claimedUser",
      "outputs": [
        {
          "internalType": "bool",
          "name": "",
          "type": "bool"
        }
      ],
      "stateMutability": "view",
      "type": "function"
    },
    {
      "inputs": [
        {
          "internalType": "uint256",
          "name": "",
          "type": "uint256"
        }
      ],
      "name": "_usedNonce",
      "outputs": [
        {
          "internalType": "bool",
          "name": "",
          "type": "bool"
        }
      ],
      "stateMutability": "view",
      "type": "function"
    },
    {
      "inputs": [],
      "name": "calcClaimableAmount",
      "outputs": [
        {
          "internalType": "uint256",
          "name": "",
          "type": "uint256"
        }
      ],
      "stateMutability": "view",
      "type": "function"
    },
    {
      "inputs": [],
      "name": "canClaimAmount",
      "outputs": [
        {
          "internalType": "uint256",
          "name": "",
          "type": "uint256"
        }
      ],
      "stateMutability": "view",
      "type": "function"
    },
    {
      "inputs": [
        {
          "internalType": "uint128",
          "name": "nonce",
          "type": "uint128"
        },
        {
          "internalType": "bytes",
          "name": "signature",
          "type": "bytes"
        },
        {
          "internalType": "address",
          "name": "referrer",
          "type": "address"
        }
      ],
      "name": "claim",
      "outputs": [],
      "stateMutability": "nonpayable",
      "type": "function"
    },
    {
      "inputs": [
        {
          "internalType": "address",
          "name": "",
          "type": "address"
        }
      ],
      "name": "claimableTokens",
      "outputs": [
        {
          "internalType": "uint256",
          "name": "",
          "type": "uint256"
        }
      ],
      "stateMutability": "view",
      "type": "function"
    },
    {
      "inputs": [],
      "name": "claimedCount",
      "outputs": [
        {
          "internalType": "uint256",
          "name": "",
          "type": "uint256"
        }
      ],
      "stateMutability": "view",
      "type": "function"
    },
    {
      "inputs": [],
      "name": "claimedPercentage",
      "outputs": [
        {
          "internalType": "uint256",
          "name": "",
          "type": "uint256"
        }
      ],
      "stateMutability": "view",
      "type": "function"
    },
    {
      "inputs": [],
      "name": "claimedSupply",
      "outputs": [
        {
          "internalType": "uint256",
          "name": "",
          "type": "uint256"
        }
      ],
      "stateMutability": "view",
      "type": "function"
    },
    {
      "inputs": [],
      "name": "endTime",
      "outputs": [
        {
          "internalType": "uint256",
          "name": "",
          "type": "uint256"
        }
      ],
      "stateMutability": "view",
      "type": "function"
    },
    {
      "inputs": [
        {
          "internalType": "address",
          "name": "",
          "type": "address"
        }
      ],
      "name": "inviteRewards",
      "outputs": [
        {
          "internalType": "uint256",
          "name": "",
          "type": "uint256"
        }
      ],
      "stateMutability": "view",
      "type": "function"
    },
    {
      "inputs": [
        {
          "internalType": "address",
          "name": "",
          "type": "address"
        }
      ],
      "name": "inviteUsers",
      "outputs": [
        {
          "internalType": "uint256",
          "name": "",
          "type": "uint256"
        }
      ],
      "stateMutability": "view",
      "type": "function"
    },
    {
      "inputs": [],
      "name": "owner",
      "outputs": [
        {
          "internalType": "address",
          "name": "",
          "type": "address"
        }
      ],
      "stateMutability": "view",
      "type": "function"
    },
    {
      "inputs": [],
      "name": "referReward",
      "outputs": [
        {
          "internalType": "uint256",
          "name": "",
          "type": "uint256"
        }
      ],
      "stateMutability": "view",
      "type": "function"
    },
    {
      "inputs": [],
      "name": "renounceOwnership",
      "outputs": [],
      "stateMutability": "nonpayable",
      "type": "function"
    },
    {
      "inputs": [
        {
          "internalType": "address[]",
          "name": "_recipients",
          "type": "address[]"
        },
        {
          "internalType": "uint256[]",
          "name": "_claimableAmount",
          "type": "uint256[]"
        }
      ],
      "name": "setRecipients",
      "outputs": [],
      "stateMutability": "nonpayable",
      "type": "function"
    },
    {
      "inputs": [
        {
          "internalType": "address",
          "name": "val",
          "type": "address"
        }
      ],
      "name": "setSigner",
      "outputs": [],
      "stateMutability": "nonpayable",
      "type": "function"
    },
    {
      "inputs": [
        {
          "internalType": "address",
          "name": "_tokenAddress",
          "type": "address"
        }
      ],
      "name": "setToken",
      "outputs": [],
      "stateMutability": "nonpayable",
      "type": "function"
    },
    {
      "inputs": [],
      "name": "signer",
      "outputs": [
        {
          "internalType": "address",
          "name": "",
          "type": "address"
        }
      ],
      "stateMutability": "view",
      "type": "function"
    },
    {
      "inputs": [],
      "name": "token",
      "outputs": [
        {
          "internalType": "contract IERC20",
          "name": "",
          "type": "address"
        }
      ],
      "stateMutability": "view",
      "type": "function"
    },
    {
      "inputs": [],
      "name": "totalClaimedAmount",
      "outputs": [
        {
          "internalType": "uint256",
          "name": "",
          "type": "uint256"
        }
      ],
      "stateMutability": "view",
      "type": "function"
    },
    {
      "inputs": [],
      "name": "totalRushAmount",
      "outputs": [
        {
          "internalType": "uint256",
          "name": "",
          "type": "uint256"
        }
      ],
      "stateMutability": "view",
      "type": "function"
    },
    {
      "inputs": [
        {
          "internalType": "address",
          "name": "newOwner",
          "type": "address"
        }
      ],
      "name": "transferOwnership",
      "outputs": [],
      "stateMutability": "nonpayable",
      "type": "function"
    },
    {
      "inputs": [],
      "name": "withdrawTokens",
      "outputs": [],
      "stateMutability": "nonpayable",
      "type": "function"
    }
  ],
  "bytecode": "0x608080604052346100675760008054336001600160a01b0319821681178355906001600160a01b03167f8be0079c531659141344cd1fd0a4f28419497f9722a3daafe3b4186f6b6457e08385a3806006558060075580600855600a55610dfb908161006d8239f35b600080fdfe6040608081526004908136101561001557600080fd5b600091823560e01c908163144fa6d7146109fa578163238ac933146109d157816325d3ab5c146109a45781635b8aca6c1461096c5781635cdd060c14610949578163634da7871461092b5781636c19e783146108995781636e1bd32314610875578163715018a6146108185781637b0a6445146107f95781638431165e146107d55781638d2c5d441461079d5781638da5cb5b1461077557816397b63b0414610738578163bfc2aa2a14610719578163c08fa1a4146106fa578163e14204b5146106d8578163ef45e240146106b9578163f2fde38b146105f6578163f6303ef514610135575063fc0c546a1461010a57600080fd5b3461013157816003193601126101315760015490516001600160a01b039091168152602090f35b5080fd5b9050346105f25760603660031901126105f2578035906fffffffffffffffffffffffffffffffff82168092036105ee5760249081359167ffffffffffffffff8084116105ea57366023850112156105ea5783830135918183116105e657368184870101116105e6576044356001600160a01b03818116969093908783036105e257888b526020956003875260ff8b8d2054166105a057338c5287875260ff8b8d20541661056657908b878c94933383528a825280888785209760ff199860018a825416179055519561021085601f19601f8601160188610b85565b8287520183860137830101528a5191878301308152338d8501528b60608501526060845260808401908482108383111761055457818e52845190209160e089600254169560a08101947f19457468657265756d205369676e6564204d6573736167653a0a333200000000865260bc820152603c8452019082821090821117610554578d5251902086916102af916102a79190610cfe565b919091610be4565b160361051957878a52600385526001898b20918254161790556102d0610aec565b91620f424083106104d85750908892916102e8610aec565b8096846001541693878c518096818a8161032563a9059cbb60e01b998a8352338a840160209093929193604081019460018060a01b031681520152565b03925af19485156104ce5788956104b1575b50610353610346600754610bd5565b9182600755600654610ab3565b6006558061049a575b5088151580610490575b8061047d575b6103b2575b5050505050508451938452830152828201524260608201527f43df200563d66c23d96ffc5da991b910cb5fc0e45018c64c7fe558830feec39260803392a251f35b6103e86103be89610ad6565b6001548d519485526001600160a01b03909516928401928352046020820181905291959194869316918391829060400103925af19182156104735761043892610446575b5084885260058352868820610418828254610ab3565b90558488526009835286882061042e8154610bd5565b9055600a54610ab3565b600a55853882818080610371565b61046590843d861161046c575b61045d8183610b85565b810190610bbd565b5038610402565b503d610453565b87513d8a823e3d90fd5b50673a4965bf58a40000600a541061036c565b5033891415610366565b6104a7620989f791610ad6565b046008553861035c565b6104c790863d881161046c5761045d8183610b85565b5038610337565b8c513d89823e3d90fd5b856017606492878c519362461bcd60e51b85528401528201527f52656b743a2061697264726f702068617320656e6465640000000000000000006044820152fd5b885162461bcd60e51b81528087018690526016818501527552656b743a206f6e6c79206175746820636c61696d7360501b6044820152606490fd5b634e487b7160e01b8f5260418b52878ffd5b8a5162461bcd60e51b81528089018890526015818701527414995add0e88185b1c9958591e4818db185a5b5959605a1b6044820152606490fd5b8a5162461bcd60e51b81528089018890526018818701527f52656b743a206e6f6e636520616c7265616479207573656400000000000000006044820152606490fd5b8a80fd5b8780fd5b8680fd5b8380fd5b8280fd5b9050346105f25760203660031901126105f257610611610a40565b610619610a5b565b6001600160a01b03908116918215610667575083546001600160a01b0319811683178555925192167f8be0079c531659141344cd1fd0a4f28419497f9722a3daafe3b4186f6b6457e08484a3f35b608490602085519162461bcd60e51b8352820152602660248201527f4f776e61626c653a206e6577206f776e657220697320746865207a65726f206160448201526564647265737360d01b6064820152fd5b5050346101315781600319360112610131576020906008549051908152f35b505034610131578160031936011261013157602090516601d606e06b80008152f35b5050346101315781600319360112610131576020906007549051908152f35b5050346101315781600319360112610131576020906006549051908152f35b9050346105f25760203660031901126105f25760209260ff918391906001600160a01b03610764610a40565b168252855220541690519015158152f35b505034610131578160031936011261013157905490516001600160a01b039091168152602090f35b5050346101315760203660031901126101315760209181906001600160a01b036107c5610a40565b1681526005845220549051908152f35b5050346101315781600319360112610131576020906107f2610aec565b9051908152f35b505034610131578160031936011261013157602090600a549051908152f35b505034610131578160031936011261013157610832610a5b565b81546001600160a01b03198116835590519082906001600160a01b03167f8be0079c531659141344cd1fd0a4f28419497f9722a3daafe3b4186f6b6457e08284a3f35b5050346101315781600319360112610131576020905168048dbbf2f2ecd000008152f35b9050346105f25760203660031901126105f2576108b4610a40565b6108bc610a5b565b6001600160a01b03169081156108e857506bffffffffffffffffffffffff60a01b600254161760025551f35b606490602084519162461bcd60e51b8352820152601d60248201527f52656b743a2076616c20697320746865207a65726f20616464726573730000006044820152fd5b50503461013157816003193601126101315760209051620989f78152f35b50503461013157816003193601126101315760209051673a4965bf58a400008152f35b5050346101315760203660031901126101315760209181906001600160a01b03610994610a40565b1681526009845220549051908152f35b9050346105f25760203660031901126105f2578160209360ff923581526003855220541690519015158152f35b50503461013157816003193601126101315760025490516001600160a01b039091168152602090f35b50503461013157602036600319011261013157610a15610a40565b610a1d610a5b565b60018060a01b03166bffffffffffffffffffffffff60a01b600154161760015551f35b600435906001600160a01b0382168203610a5657565b600080fd5b6000546001600160a01b03163303610a6f57565b606460405162461bcd60e51b815260206004820152602060248201527f4f776e61626c653a2063616c6c6572206973206e6f7420746865206f776e65726044820152fd5b91908201809211610ac057565b634e487b7160e01b600052601160045260246000fd5b806000190460641181151516610ac05760640290565b600754620989f79081811015610b7e576601d606e06b80009160018201809211610ac057600019916305f5e10090801515818504831116610ac0570204624c4b40915b81831115610b3d5750505090565b9091926050818304811182151516610b6957606491020492624c4b408101809111610b69579190610b2f565b60246000634e487b7160e01b81526011600452fd5b5050600090565b90601f8019910116810190811067ffffffffffffffff821117610ba757604052565b634e487b7160e01b600052604160045260246000fd5b90816020910312610a5657518015158103610a565790565b6000198114610ac05760010190565b6005811015610ce85780610bf55750565b60018103610c425760405162461bcd60e51b815260206004820152601860248201527f45434453413a20696e76616c6964207369676e617475726500000000000000006044820152606490fd5b60028103610c8f5760405162461bcd60e51b815260206004820152601f60248201527f45434453413a20696e76616c6964207369676e6174757265206c656e677468006044820152606490fd5b600314610c9857565b60405162461bcd60e51b815260206004820152602260248201527f45434453413a20696e76616c6964207369676e6174757265202773272076616c604482015261756560f01b6064820152608490fd5b634e487b7160e01b600052602160045260246000fd5b906041815114600014610d2c57610d28916020820151906060604084015193015160001a90610d36565b9091565b5050600090600290565b9291907f7fffffffffffffffffffffffffffffff5d576e7357a4501ddfe92f46681b20a08311610db95791608094939160ff602094604051948552168484015260408301526060820152600093849182805260015afa15610dac5781516001600160a01b03811615610da6579190565b50600190565b50604051903d90823e3d90fd5b5050505060009060039056fea2646970667358221220bb00009991375ebc054cbcfe588be65ce7eab92797e8d2d0d818536aefc1aa4164736f6c63430008100033",
  "linkReferences": {},
  "deployedLinkReferences": {}
}